:020000040800F2
:10000000000002203D37010859A100085BA100084B
:100010005DA100085FA1000861A1000800000000C8
:1000200000000000000000000000000091C4000873
:1000300063A100080000000021C5000865C5000894
:100040008D3701088D3701088D3701088D3701087C
:100050008D3701088D3701088D3701088D3701086C
:100060008D3701088D3701088D3701088D3701085C
:100070008D3701088D3701088D3701088D3701084C
:100080008D3701088D3701088D3701088D3701083C
:100090008D3701088D3701088D3701088D3701082C
:1000A0008D37010865A100088D3701088D370108DB
:1000B000FD8A0008098B0008158B00088D370108A0
:1000C0008D3701088D3701088D3701088D370108FC
:1000D0008D3701088D3701088D3701088D370108EC
:1000E0008D3701088D3701088D3701088D370108DC
:1000F0008D3701088D3701088D3701088D370108CC
:100100008D3701088D370108218B00088D370108D4
:100110008D3701088D3701088D3701088D370108AB
:100120008D3701088D3701088D3701088D3701089B
:100130008D37010871A100088D3701088D3701083E
:100140008D3701088D3701088D3701088D3701087B
:100150008D3701088D3701088D3701088D3701086B
:100160008D3701088D3701088D3701088D3701085B
:100170008D3701088D3701088D3701080000000018
:040180008D370108AE
:1001900010B5054C237833B9044B13B10448AFF3C1
:1001A00000800123237010BDEC010020000000003E
:1001B00040A7010808B5034B1BB103490348AFF33F
:1001C000008008BD00000000F001002040A70108E9
:1001D00010F8012B11F8013B012A28BF9A42F7D0F1
:1001E000D01A7047034613F8012B002AFBD1181AC6
:1001F0000138704781F0004102E000BF83F0004306
:1002000030B54FEA41044FEA430594EA050F08BFB1
:1002100090EA020F1FBF54EA000C55EA020C7FEA75
:10022000645C7FEA655C00F0E2804FEA5454D4EBF2
:100230005555B8BF6D420CDD2C4480EA020281EABC
:10024000030382EA000083EA010180EA020281EAF4
:100250000303362D88BF30BD11F0004F4FEA013146
:100260004FF4801C4CEA113102D0404261EB410155
:1002700013F0004F4FEA03334CEA133302D05242DB
:1002800063EB430394EA050F00F0A780A4F1010497
:10029000D5F1200E0DDB02FA0EFC22FA05F28018D1
:1002A00041F1000103FA0EF2801843FA05F35941B7
:1002B0000EE0A5F120050EF1200E012A03FA0EFC36
:1002C00028BF4CF0020C43FA05F3C01851EBE37160
:1002D00001F0004507D54FF0000EDCF1000C7EEB7D
:1002E00000006EEB0101B1F5801F1BD3B1F5001FBB
:1002F0000CD349085FEA30004FEA3C0C04F10104DA
:100300004FEA445212F5800F80F09A80BCF1004F02
:1003100008BF5FEA500C50F1000041EB045141EA84
:10032000050130BD5FEA4C0C404141EB010111F485
:10033000801FA4F10104E9D191F0000F04BF014630
:100340000020B1FA81F308BF2033A3F10B03B3F10E
:1003500020020CDA0C3208DD02F1140CC2F10C029E
:1003600001FA0CF021FA02F10CE002F11402D8BFFC
:10037000C2F1200C01FA02F120FA0CFCDCBF41EAC8
:100380000C019040E41AA2BF01EB0451294330BD97
:100390006FEA04041F3C1CDA0C340EDC04F1140474
:1003A000C4F1200220FA04F001FA02F340EA03004B
:1003B00021FA04F345EA030130BDC4F10C04C4F191
:1003C000200220FA02F001FA04F340EA0300294671
:1003D00030BD21FA04F0294630BD94F0000F83F4BB
:1003E000801306BF81F480110134013D4EE77FEA9E
:1003F000645C18BF7FEA655C29D094EA050F08BFEA
:1004000090EA020F05D054EA000C04BF19461046CA
:1004100030BD91EA030F1EBF0021002030BD5FEA0E
:10042000545C05D14000494128BF41F0004130BD36
:1004300014F580043CBF01F5801130BD01F000458A
:1004400045F0FE4141F470014FF0000030BD7FEAFD
:10045000645C1ABF194610467FEA655C1CBF0B46F8
:10046000024650EA013406BF52EA033591EA030F0F
:1004700041F4002130BD00BF90F0000F04BF002107
:10048000704730B54FF4806404F132044FF000053A
:100490004FF0000150E700BF90F0000F04BF0021B3
:1004A000704730B54FF4806404F1320410F0004519
:1004B00048BF40424FF000013EE700BF42004FEA14
:1004C000E2014FEA31014FEA02701FBF12F07F4391
:1004D00093F07F4F81F06051704792F0000F14BF8E
:1004E00093F07F4F704730B54FF4607401F00045D2
:1004F00021F0004120E700BF50EA010208BF704729
:1005000030B54FF000050AE050EA010208BF70471D
:1005100030B511F0004502D5404261EB41014FF486
:10052000806404F132045FEA915C3FF4DCAE4FF08A
:1005300003025FEADC0C18BF03325FEADC0C18BF71
:10054000033202EBDC02C2F1200300FA03FC20FAC2
:1005500002F001FA03FE40EA0E0021FA02F114440F
:10056000C1E600BF70B54FF0FF0C4CF4E06C1CEA24
:1005700011541DBF1CEA135594EA0C0F95EA0C0F99
:1005800000F0DEF82C4481EA030621EA4C5123EA0C
:100590004C5350EA013518BF52EA033541F480113B
:1005A00043F4801338D0A0FB02CE4FF00005E1FBEE
:1005B00002E506F00042E0FB03E54FF00006E1FB38
:1005C00003569CF0000F18BF4EF0010EA4F1FF047B
:1005D000B6F5007F64F5407404D25FEA4E0E6D41BB
:1005E00046EB060642EAC62141EA55514FEAC520CC
:1005F00040EA5E504FEACE2EB4F1FD0C88BFBCF548
:10060000E06F1ED8BEF1004F08BF5FEA500E50F1F8
:10061000000041EB045170BD06F0004646EA0101BE
:1006200040EA020081EA0301B4EB5C04C2BFD4EBF0
:100630000C0541EA045170BD41F480114FF0000EE9
:10064000013C00F3AB8014F1360FDEBF002001F057
:10065000004170BDC4F10004203C35DA0C341BDCD1
:1006600004F11404C4F1200500FA05F320FA04F0A3
:1006700001FA05F240EA020001F0004221F00041D7
:1006800010EBD37021FA04F642EB06015EEA430E4A
:1006900008BF20EAD37070BDC4F10C04C4F120057A
:1006A00000FA04F320FA05F001FA04F240EA02002D
:1006B00001F0004110EBD37041F100015EEA430EFE
:1006C00008BF20EAD37070BDC4F1200500FA05F21E
:1006D0004EEA020E20FA04F301FA05F243EA02039D
:1006E00021FA04F001F0004121FA04F220EA0200AC
:1006F00000EBD3705EEA430E08BF20EAD37070BDF2
:1007000094F0000F0FD101F00046400041EB0101D1
:1007100011F4801F08BF013CF7D041EA060195F0B3
:10072000000F18BF704703F00046520043EB03036D
:1007300013F4801F08BF013DF7D043EA060370475A
:1007400094EA0C0F0CEA135518BF95EA0C0F0CD065
:1007500050EA410618BF52EA4306D1D181EA0301AB
:1007600001F000414FF0000070BD50EA410606BFA5
:100770001046194652EA430619D094EA0C0F02D1EA
:1007800050EA013613D195EA0C0F05D152EA03362F
:100790001CBF104619460AD181EA030101F000414D
:1007A00041F0FE4141F470014FF0000070BD41F096
:1007B000FE4141F4780170BD70B54FF0FF0C4CF470
:1007C000E06C1CEA11541DBF1CEA135594EA0C0F8F
:1007D00095EA0C0F00F0A7F8A4EB050481EA030EDC
:1007E00052EA03354FEA013100F088804FEA0333C3
:1007F0004FF0805545EA131343EA12634FEA022291
:1008000045EA111545EA10654FEA00260EF0004151
:100810009D4208BF964244F1FD0404F5407402D2A3
:100820005B084FEA3202B61A65EB03055B084FEA34
:1008300032024FF480104FF4002CB6EB020E75EB31
:10084000030E22BFB61A754640EA0C005B084FEA59
:100850003202B6EB020E75EB030E22BFB61A7546D6
:1008600040EA5C005B084FEA3202B6EB020E75EB21
:10087000030E22BFB61A754640EA9C005B084FEA99
:100880003202B6EB020E75EB030E22BFB61A7546A6
:1008900040EADC0055EA060E18D04FEA051545EA95
:1008A00016754FEA06164FEAC30343EA52734FEA3E
:1008B000C2025FEA1C1CC0D111F4801F0BD141EAB7
:1008C00000014FF000004FF0004CB6E711F4801F1C
:1008D00004BF01430020B4F1FD0C88BFBCF5E06FFC
:1008E0003FF6AFAEB5EB030C04BFB6EB020C5FEA0C
:1008F000500C50F1000041EB045170BD0EF0004E61
:100900004EEA113114EB5C04C2BFD4EB0C0541EA92
:10091000045170BD41F480114FF0000E013C90E68F
:1009200045EA060E8DE60CEA135594EA0C0F08BF53
:1009300095EA0C0F3FF43BAF94EA0C0F0AD150EA52
:1009400001347FF434AF95EA0C0F7FF425AF1046E5
:1009500019462CE795EA0C0F06D152EA03353FF40D
:10096000FDAE1046194622E750EA410618BF52EA8A
:1009700043067FF4C5AE50EA41047FF40DAF52EA5E
:1009800043057FF4EBAE12E74FF0FF3C06E000BFFB
:100990004FF0010C02E000BF4FF0010C4DF804CD08
:1009A0004FEA410C7FEA6C5C4FEA430C18BF7FEAC8
:1009B0006C5C1BD001B050EA410C0CBF52EA430CF6
:1009C00091EA030F02BF90EA020F0020704710F176
:1009D000000F91EA030F58BF994208BF90422CBF05
:1009E000D8176FEAE37040F0010070474FEA410CFE
:1009F0007FEA6C5C02D150EA013C07D14FEA430C1C
:100A00007FEA6C5CD6D152EA033CD3D05DF8040B8C
:100A1000704700BF8446104662468C4619466346BE
:100A200000E000BF01B5FFF7B7FF002848BF10F195
:100A3000000F01BD4DF808EDFFF7F4FF0CBF0120DA
:100A400000205DF808FB00BF4DF808EDFFF7EAFF56
:100A500034BF012000205DF808FB00BF4DF808ED11
:100A6000FFF7E0FF94BF012000205DF808FB00BF06
:100A70004DF808EDFFF7CEFF94BF012000205DF890
:100A800008FB00BF4DF808EDFFF7C4FF34BF01209D
:100A900000205DF808FB00BF4FEA410C7FEA6C5C68
:100AA00002D150EA013C0AD14FEA430C7FEA6C5C68
:100AB00002D152EA033C02D14FF0000070474FF0E0
:100AC000010070474FEA410212F5001215D211D50C
:100AD0006FF47873B3EB625212D94FEAC12343F03B
:100AE000004343EA505311F0004F23FA02F018BFBD
:100AF000404270474FF00000704750EA013005D186
:100B000011F0004008BF6FF0004070474FF0000048
:100B1000704700BF4A0011D212F5001211D20DD554
:100B20006FF47873B3EB62520ED44FEAC12343F0F3
:100B3000004343EA505323FA02F070474FF000009D
:100B4000704750EA013002D14FF0FF3070474FF04C
:100B5000000070474FEA4102B2F1E04324BFB3F511
:100B6000001CDCF1FE5C0DD901F0004C4FEAC00224
:100B70004CEA5070B2F1004F40EB830008BF20F008
:100B80000100704711F0804F21D113F13872BCBFC2
:100B900001F00040704741F480114FEA5252C2F117
:100BA0001802C2F1200C10FA0CF320FA02F018BF60
:100BB00040F001004FEAC1234FEAD32303FA0CFCB3
:100BC00040EA0C0023FA02F34FEA4303CCE77FEA42
:100BD000625307D150EA01331EBF4FF0FE4040F48C
:100BE0004000704701F0004040F0FE4040F400003B
:100BF000704700BF80F0004002E000BF81F000417C
:100C000042001FBF5FEA410392EA030F7FEA226CB2
:100C10007FEA236C6AD04FEA1262D2EB1363C1BF42
:100C2000D218414048404140B8BF5B42192B88BFB1
:100C3000704710F0004F40F4000020F07F4018BFD4
:100C4000404211F0004F41F4000121F07F4118BFF4
:100C5000494292EA030F3FD0A2F1010241FA03FC9C
:100C600010EB0C00C3F1200301FA03F100F0004384
:100C700002D5494260EB4000B0F5000F13D3B0F14C
:100C8000807F06D340084FEA310102F10102FE2ABB
:100C900051D2B1F1004F40EBC25008BF20F001002B
:100CA00040EA03007047490040EB000010F4000FD9
:100CB000A2F10102EDD1B0FA80FCACF1080CB2EB6C
:100CC0000C0200FA0CF0AABF00EBC25052421843CB
:100CD000BCBFD0401843704792F0000F81F4000170
:100CE00006BF80F400000132013BB5E74FEA410343
:100CF0007FEA226C18BF7FEA236C21D092EA030FAF
:100D000004D092F0000F08BF0846704790EA010F28
:100D10001CBF0020704712F07F4F04D1400028BF55
:100D200040F00040704712F100723CBF00F5000037
:100D3000704700F0004343F0FE4040F4000070476D
:100D40007FEA226216BF08467FEA23630146420219
:100D500006BF5FEA412390EA010F40F4800070472C
:100D60004FF0000304E000BF10F0004348BF4042D2
:100D70005FEA000C08BF704743F0964301464FF00E
:100D800000001CE050EA010208BF70474FF000036A
:100D90000AE000BF50EA010208BF704711F00043AB
:100DA00002D5404261EB41015FEA010C02BF84467B
:100DB0000146002043F0B64308BFA3F18053A3F5DA
:100DC0000003BCFA8CF2083AA3EBC25310DB01FA21
:100DD00002FC634400FA02FCC2F12002BCF1004FA5
:100DE00020FA02F243EB020008BF20F00100704736
:100DF00002F1200201FA02FCC2F1200250EA4C008A
:100E000021FA02F243EB020008BF20EADC707047CF
:100E10004FF0FF0C1CEAD0521EBF1CEAD15392EADD
:100E20000C0F93EA0C0F6FD01A4480EA010C4002B9
:100E300018BF5FEA41211ED04FF0006343EA501013
:100E400043EA5111A0FB01310CF00040B1F5000F55
:100E50003EBF490041EAD3715B0040EA010062F104
:100E60007F02FD2A1DD8B3F1004F40EBC25008BFEE
:100E700020F00100704790F0000F0CF0004C08BF0C
:100E800049024CEA502040EA51207F3AC2BFD2F1D9
:100E9000FF0340EAC250704740F400004FF00003E7
:100EA000013A5DDC12F1190FDCBF00F00040704721
:100EB000C2F10002410021FA02F1C2F1200200FA5F
:100EC00002FC5FEA310040F1000053EA4C0308BF26
:100ED00020EADC70704792F0000F00F0004C02BF77
:100EE000400010F4000F013AF9D040EA0C0093F0F2
:100EF000000F01F0004C02BF490011F4000F013B4C
:100F0000F9D041EA0C018FE70CEAD15392EA0C0FB9
:100F100018BF93EA0C0F0AD030F0004C18BF31F024
:100F2000004CD8D180EA010000F00040704790F0FA
:100F3000000F17BF90F0004F084691F0000F91F09E
:100F4000004F14D092EA0C0F01D142020FD193EA64
:100F50000C0F03D14B0218BF084608D180EA0100EC
:100F600000F0004040F0FE4040F40000704740F0C8
:100F7000FE4040F4400070474FF0FF0C1CEAD05296
:100F80001EBF1CEAD15392EA0C0F93EA0C0F69D0F2
:100F9000A2EB030280EA010C49024FEA402037D05D
:100FA0004FF0805343EA111143EA10130CF0004054
:100FB0008B4238BF5B0042F17D024FF4000C8B4244
:100FC00024BF5B1A40EA0C00B3EB510F24BFA3EB24
:100FD000510340EA5C00B3EB910F24BFA3EB9103F4
:100FE00040EA9C00B3EBD10F24BFA3EBD10340EA4E
:100FF000DC001B0118BF5FEA1C1CE0D1FD2A3FF694
:1010000050AF8B4240EBC25008BF20F00100704748
:101010000CF0004C4CEA50207F32C2BFD2F1FF03EB
:1010200040EAC250704740F400004FF00003013A1C
:1010300037E792F0000F00F0004C02BF400010F4C0
:10104000000F013AF9D040EA0C0093F0000F01F0D4
:10105000004C02BF490011F4000F013BF9D041EAF6
:101060000C0195E70CEAD15392EA0C0F08D1420229
:101070007FF47DAF93EA0C0F7FF470AF084676E7FC
:1010800093EA0C0F04D14B023FF44CAF08466EE7D5
:1010900030F0004C18BF31F0004CCAD130F00042A3
:1010A0007FF45CAF31F000437FF43CAF5FE700BFFB
:1010B0004FF0FF3C06E000BF4FF0010C02E000BF24
:1010C0004FF0010C4DF804CD4FEA40024FEA4103C6
:1010D0007FEA226C18BF7FEA236C11D001B052EA7C
:1010E000530C18BF90EA010F58BFB2EB030088BF42
:1010F000C81738BF6FEAE17018BF40F001007047B1
:101100007FEA226C02D15FEA402C05D17FEA236C92
:10111000E4D15FEA412CE1D05DF8040B704700BFD9
:10112000844608466146FFE70FB5FFF7C9FF002870
:1011300048BF10F1000F0FBD4DF808EDFFF7F4FFA9
:101140000CBF012000205DF808FB00BF4DF808ED42
:10115000FFF7EAFF34BF012000205DF808FB00BF65
:101160004DF808EDFFF7E0FF94BF012000205DF887
:1011700008FB00BF4DF808EDFFF7D2FF94BF012038
:1011800000205DF808FB00BF4DF808EDFFF7C8FF31
:1011900034BF012000205DF808FB00BF4FEA400289
:1011A0004FEA41037FEA226C02D15FEA402C08D16A
:1011B0007FEA236C02D15FEA412C02D14FF000009C
:1011C00070474FF0010070474FEA4002B2F1FE4F06
:1011D0000FD34FF09E03B3EB12620DD94FEA0023F9
:1011E00043F0004310F0004F23FA02F018BF4042D2
:1011F00070474FF00000704712F1610F01D14202B9
:1012000005D110F0004008BF6FF0004070474FF06C
:101210000000704742000ED2B2F1FE4F0BD34FF0E8
:101220009E03B3EB126209D44FEA002343F000435C
:1012300023FA02F070474FF00000704712F1610F7F
:1012400001D1420202D14FF0FF3070474FF0000051
:10125000704700BF53B94AB9002908BF00281CBF16
:101260004FF0FF314FF0FF3000F07AB9ADF1080CCC
:101270006DE904CE00F006F8DDF804E0DDE90223B4
:1012800004B070472DE9F0478C460E460446089D91
:10129000002B50D18A4217466CD9B2FA82FEBEF1B9
:1012A000000F0BD0CEF1200C01FA0EF620FA0CFC48
:1012B00002FA0EF74CEA060C00FA0EF43A0CBCFBEC
:1012C000F2F9BBB202FB19CC09FB03FA4FEA14484E
:1012D00048EA0C46B2450AD9F61909F1FF3180F007
:1012E0002581B24540F22281A9F102093E44A6EBD4
:1012F0000A06B6FBF2F002FB106600FB03F3A4B291
:1013000044EA0644A34209D9E41900F1FF3280F00F
:101310000B81A34240F2088102383C440021E41AC8
:1013200040EA0940002D62D0002324FA0EF42C601C
:101330006B60BDE8F0878B4207D9002D55D00021A6
:1013400085E841000846BDE8F087B3FA83F100293B
:1013500040F08F80B34202D3824200F2FC80841AB4
:1013600066EB03060120B446002D40D085E810103E
:10137000BDE8F08712B90127B7FBF2F7B7FA87FE8D
:10138000BEF1000F35D10121F61B4FEA174C1FFAB1
:1013900087F8B6FBFCF20CFB126608FB02F0230C8C
:1013A00043EA0646B04207D9F61902F1FF3302D2EA
:1013B000B04200F2D2801A46361AB6FBFCF00CFBA3
:1013C000106608FB00F8A3B243EA0644A04507D91B
:1013D000E41900F1FF3302D2A04500F2B9801846AB
:1013E000A4EB080440EA02409CE729462846BDE8F1
:1013F000F08707FA0EF7CEF1200326FA03F24FEA40
:10140000174CB2FBFCF11FFA87F80CFB112206FA0D
:101410000EF620FA03F301FB08F933431E0C46EAEB
:101420000246B14500FA0EF409D9F61901F1FF326E
:1014300080F08C80B14540F2898002393E44A6EBB1
:101440000906B6FBFCF00CFB106200FB08F99EB22B
:1014500046EA0246B14507D9F61900F1FF3371D2C9
:10146000B1456FD902383E44A6EB090640EA014176
:101470008FE7C1F1200722FA07F88B4048EA0303FF
:1014800026FA07F44FEA134EB4FBFEF91FFA83FC69
:101490000EFB19448E4020FA07F809FB0CFA48EAC3
:1014A00006084FEA184646EA0444A24502FA01F249
:1014B00000FA01F608D9E41809F1FF3044D2A24538
:1014C00042D9A9F102091C44A4EB0A04B4FBFEF0C2
:1014D0000EFB104400FB0CFC1FFA88F848EA044499
:1014E000A44507D9E41800F1FF3E29D2A44527D925
:1014F00002381C4440EA0940A0FB0289A4EB0C0C12
:10150000CC45C246CE4615D312D055B1B6EB0A0330
:101510006CEB0E0606FA07F7CB401F43CE402F6058
:101520006E600021BDE8F0871046F7E68946DEE6EA
:101530004645EAD2B8EB020A69EB030E0138E4E74C
:101540007046D7E718468FE78146BDE7114676E734
:1015500002383C4444E7084606E7023A3E442BE79B
:10156000704700BF034B0360034B0B608023136085
:10157000704700BF080400200802002008B500687A
:10158000FFF748FE014B83F8A90208BD084600207A
:1015900008B50068FFF73EFE014B83F8A80208BDBE
:1015A000084600202DE9F04705460E4600244FF07E
:1015B00001090D4FDFF83480394656F824005FFAF0
:1015C00084FAFFF7E1FD40B155F82410504606F0CB
:1015D00041FC04EB080383F823920134062CEBD181
:1015E000BDE8F04706F03EBCACC5273708460020F2
:1015F0000A4BF7B500F1140400F1180700691D68E3
:101600000E46FFF707FEC0B2019000943B4622460B
:101610003146E86812F0BCF803B0F0BD18000020B5
:1016200008B50068FFF7F6FD064BC0B2012883F845
:10163000AA0201D103F0B5FEBDE80840012003F085
:10164000B1BE00BF084600207FB50068FFF7E2FD8D
:101650000B4BC0B2012883F8AB0204D103F0A1FE0A
:1016600007B05DF804FB012003F09CFE1822002166
:10167000684612F07DF969466846FFF7D1FFEFE74B
:10168000084600201FB50146104B02AC18689A8826
:101690009B790290A3710E4BA28003EB41110522AE
:1016A000684613F02EF89DF80010204612F0EDFF6A
:1016B00028B99DF80310204612F0E7FF18B1001B6F
:1016C00040B204B010BD4FF0FF30FAE784A8010823
:1016D00034B4010808B5FFF7D5FF022805DC013056
:1016E0004FF0FF3018BF002008BD012008BD0000EA
:1016F0002DE9F041044686B000890F46FFF7EAFF66
:10170000D8B90F4B93F8A2220E4B53F822200E4B60
:1017100020691E680492FEF7D1FECDE9020104F1B2
:101720001405009504F1180843462A463946F06826
:1017300012F02EF806B0BDE8F081044AE7E700BFDA
:101740000846002000B401081800002014B4010865
:101750002DE9F041044686B000898846FFF7BAFFBC
:10176000E0B90F4B93F8A2220E4B53F822300E4AE9
:10177000206917680493FEF7A1FE04F1140504F133
:1017800018068DE86000CDE9020133462A4641463D
:10179000F86811F0FDFF06B0BDE8F081034BE6E705
:1017A0000846002000B401081800002014B4010805
:1017B0002DE9F0410546154B86B0186814469A8805
:1017C0009B79049028890F46ADF814208DF81630C7
:1017D000FFF758FFC0B2032828BF022406AB184405
:1017E0000B4B10F8088C1E680A4B286953F82430FC
:1017F0000293FEF763FECDE9000142463946F068E8
:1018000011F0C6FF06B0BDE8F08100BF8BA801084B
:101810001800002000B40108134B93F81E226AB987
:1018200093F81D2283F81C2293F81D22062A04BF78
:101830000B2283F81C2293F81C027047022A01D164
:101840000722EFE7032A01D10922EBE7042A01D19D
:101850000A22E7E793F81F22012A01D10522E1E7D6
:10186000022AE1D10622DDE708460020014B93F869
:101870001D02704708460020014B93F82202704772
:1018800008460020074B012883F81F0208D002D326
:10189000022805D0704703F51572C3F8502270472F
:1018A000014AFAE7084600205C710020014B83F8EA
:1018B00022027047084600200079704790F84F00D8
:1018C000704790F84E00704790F85100704790F8BC
:1018D0005200704790F84C00704705F0F5BB006C63
:1018E00070470171704780F8581070474164704725
:1018F000024BC3F85402024801F05EBF08460020C4
:1019000025FF010808B50D4B014693F8A422012AD2
:1019100012D0062093F8A32200FB021203EB8202EE
:10192000506A93F81F23012A07D103EB8103D3F8F0
:10193000CC12FFF765F908BD002008BD084600205D
:1019400038B5002400F12005E0B2FFF7DBFF0134D9
:10195000062C45F8040BF7D138BD000080F8501074
:101960000148FFF7EDBF00BF5C4800202DE9F041C2
:10197000144D044686B095F81F03FFF7F5F980462D
:101980002068FFF747FC18270024C0B247432B19F3
:10199000D3F8CC124046FFF73BFA3E192E440146DD
:1019A000706AFFF72DF94DF804000434182CEED1BD
:1019B000684605F06BFB0448FFF7C2FF06B0BDE8C0
:1019C000F08100BF084600205C4800200346054A1D
:1019D0000846934201D005F051BB03EB8103186E1A
:1019E000704700BF5C48002038B50546104B0C46D8
:1019F0009D42084614D1FFF785FF05EB840401469C
:101A0000206EFFF7FBF895F84E3043B9FEF756FD10
:101A100005A3D3E90023FEF7CFFEFFF79BF838BDFF
:101A200005F044FBEFE700BF666666666666394010
:101A30005C48002070B50B4E06F52D7406F5177541
:101A40000FCD0FC495E8030096F8A03284E8030098
:101A500033B996F85832012B04BF0023C6F89432EC
:101A600070BD00BF084600202DE9F0471B4D8AB02D
:101A700095F81E326BBB95F84622012A29D13626ED
:101A8000174FDFF86080DFF8609085F84632182441
:101A90004FF0000A04FB0654A4F59B6417F80A30C3
:101AA0003246414607A812F0BDFD07A9484601F09D
:101AB000E5FC54F8043FADF80C000AF1010A01A856
:101AC000059301F067FBBAF1060FE7D101363C2E12
:101AD000DDD100200AB0BDE8F08700BF0846002035
:101AE00084A80108A0A8010804FF01080000000064
:101AF0002DE9F04F05468846074600244FF0380B85
:101B0000534E85B096F8A63296F8A2A2019306F538
:101B10001779E2B24F4958F824000292FFF716FBFA
:101B200020BB0BFB046393F8CC30013B012B1DD889
:101B3000019B002B54D1029A1046FFF7E3FEFEF7FB
:101B4000BDFCCDE902013868BAF1000F4BD1FEF7B8
:101B5000B5FC3BA3D3E90023FEF704FDDDE9022336
:101B6000FEF74EFBFEF7F6FFC9F800000134032C28
:101B700009F1040907F10407CBD196F8A232344FDA
:101B8000029396F8A632DFF8CC90019308F108088A
:101B900007F51A760C35494658F8040FFFF7D6FAC0
:101BA00088B997F8743173B1013B012B1ED8D5F871
:101BB00000A0019B002B3FD12046FFF7A3FE51461A
:101BC000FFF71EF830600134E4B2062C07F1380745
:101BD00006F1040605F10405DDD105B0BDE8F08F7E
:101BE000D9F80000ABE7FEF769FCB7E7029B28686D
:101BF000FBB9FEF763FC12A3D3E90023FEF7B2FCA6
:101C00000022154BFEF7AEFC8246D7F898018B46B2
:101C1000FEF754FC0CA3D3E90023FEF7A3FC024615
:101C20000B4650465946FEF7C7FDFEF793FF824626
:101C3000BFE7FEF743FCE3E751463068C0E700BF6B
:101C40006666666666663940182D4454FB21194065
:101C500008460020ACC52737008076402DE9F84FB4
:101C60001F4D81462B7B012B33D12E460024DFF8FC
:101C700074B0DFF874A0631993F82332012B23D1D9
:101C8000D6F8DC70D6F8D88038464146FEF7B6FF65
:101C9000594620F00040FFF759FAA8B95146384696
:101CA000FFF772FA28B159F824103846FFF76CFA9A
:101CB00090B951464046FFF767FA28B159F8241009
:101CC0004046FFF743FA38B90134062C06F13806CE
:101CD000D1D10020BDE8F88FDC20BDE8F88F00BF2F
:101CE00008460020ACC52737002474C941F2EF2311
:101CF000064A1380A2F8EC33A2F8B032A2F82A33D5
:101D0000034A1380A2F8C830704700BF084600207D
:101D10001055002041F2EF210E4B1A888A4216D14D
:101D2000B3F8EC13914212D1B3F8B0228A420ED12B
:101D3000B3F82A1391420AD1074A13888B4206D17D
:101D4000B2F8C800984214BF5F20002070475F209F
:101D5000704700BF0846002010550020054B93F83F
:101D60001E2222B9032283F81D220020704705227B
:101D7000F9E700BF0846002010B5044606F0F2FF60
:101D8000002006F045FE204606F072FA0622024BBD
:101D9000204683F81D2210BD08460020024B83F820
:101DA000A1020020704700BF08460020024B83F8C4
:101DB000A2020020704700BF08460020024B83F8B3
:101DC000A6020020704700BF084600200000000067
:101DD0002DE9F84F431E052B0F46914627D81826AC
:101DE00000244FF0010B164D464395F8A282DFF810
:101DF00054A0514659F80400FFF7C6F988B1385984
:101E0000B8F1000F08D1FEF759FB0BA3D3E900236B
:101E1000FEF7A8FBFEF79EFEA3192B44586285F837
:101E200046B20434182CE4D10020BDE8F88F6E20AF
:101E3000BDE8F88FAFF30080666666666666394077
:101E400008460020ACC527377FB50A4B83F8A302AC
:101E5000FEF786FF002300906A4669460648019314
:101E6000029303930493059306F0A2F8002007B0B1
:101E70005DF804FB084600206D19000838B56024A1
:101E8000204D5C220021284611F072FD22460021DF
:101E900005F1D80011F06CFD22460021A5F515745E
:101EA00005F59C7011F064FDFFF720FFA37F207FF4
:101EB00084F8A232C4F85052FFF7C6FF0422637FB1
:101EC00084F8582284F8A132E37F002284F8A532F6
:101ED00094F8203084F8472284F8A632012384F84D
:101EE000482284F8A03284F8203384F8492284F808
:101EF0001D3284F81C3206F0EDFCBDE8384003F0DA
:101F000085BE00BF5C48002038B50A4B044603EB91
:101F1000800213460D46C3F85C12C2F8B41205F0F5
:101F200091FF2946204605F095FFBDE8384005F0B1
:101F300099BF00BF084600202DE9F04707460E462E
:101F400000241D4DDFF8788086B0A5F5177941464D
:101F500056F824005FFA84FAFFF716F9A8B199F849
:101F6000A23203BB57F82400FEF7A8FA10A3D3E966
:101F70000023FEF7F7FAFEF7EDFD014650464DF857
:101F80002410A965296005F05DFF0134062C05F1D8
:101F90000405DCD132466946084806F009F80020FD
:101FA00006B0BDE8F08757F82410E7E7AFF30080EC
:101FB000666666666666394064480020A5150008B6
:101FC000ACC527370000000001232DE9F04F18268B
:101FD00080462D4CDFF8B8B084F81F3394F8A33254
:101FE00094F8A2A25E4389B0A1F1040904F5337507
:101FF00001F11407A6F52A76594659F8040FFFF7A0
:10200000C3F8E8B1A95955F8180CFEF7F7FDFEF72B
:1020100055FACDE90001D8F80000BAF1000F29D136
:10202000FEF74CFA16A3D3E90023FEF79BFA02460B
:102030000B46DDE90001FEF7E1F8FEF78BFD2860B5
:10204000B94508F1040805F10405D5D194F8A302B7
:10205000FEF786FE002302AA029011460B48039366
:10206000049305930693079305F0A2FF002009B09F
:10207000BDE8F08FFEF722FAD9E700BFAFF300808A
:102080006666666666663940084600206D19000877
:10209000ACC5273730B500240025114B87B083F835
:1020A0001F53C3F8CC42C3F8D042C3F8D442C3F89C
:1020B000D842C3F8DC42C3F8E04293F8A302FEF72B
:1020C0004FFE6A46009069460648019402940394C4
:1020D0000494059405F06CFF284607B030BD00BF9E
:1020E000084600206D19000810B500240B4B86B07F
:1020F00083F81F4393F8A302FEF732FE00230090FB
:102100006A46694606480193029303930493059334
:1021100005F04EFF204606B010BD00BF0846002067
:102120006D1900087FB501220B4B83F81F2393F82C
:10213000A302FEF715FE002300906A466946074891
:102140000193029303930493059305F031FF00205C
:1021500007B05DF804FB00BF084600206D190008B9
:102160002DE9F74F00242646164FDFF864B0164DD0
:10217000DFF86090E0B2FFF7C5FB014657F8040FA7
:10218000FEF73CFDFEF79AF914F80BA006EB0508E4
:10219000CDE9000152464946404612F043FA013467
:1021A000062C0644E6D10A23354405F8013C074BCA
:1021B00005491B68D86811F0EBFA002003B0BDE8B0
:1021C000F08F00BF60480020BC54002018000020A1
:1021D0008BA80108A7A80108F0B5104C87B0E068EB
:1021E000FEF76CF90E4B064660691D680F46FEF758
:1021F00065F9CDE904012069FEF760F9CDE9020136
:10220000A068FEF75BF9CDE9000132463B4605497F
:10221000E86811F0BDFA002007B0F0BDD0500020F2
:1022200018000020E2AE01080122054B83F82222AB
:10223000044B9B78002B0CBF02200020704700BF8E
:10224000084600208850002030B5064C04F539754A
:1022500004F52D740FCC0FC594E8030085E8030046
:10226000002030BD0846002030B5064C04F53F750F
:1022700004F52D740FCC0FC594E8030085E8030026
:10228000002030BD0846002038B5114C014694F8B6
:10229000A03225463BB94FF07E50FEF76DFEC4F8E4
:1022A0009402002038BD94F8A2324BB9FEF706F92B
:1022B00005A3D3E90023FEF755F9FEF74BFC0146D1
:1022C000C5F89412EDE700BF66666666666639403B
:1022D00008460020024B83F8A0020020704700BF90
:1022E00008460020024B83F8A5020020704700BF7B
:1022F0000846002008B5034BC3F89C0205F07EFE9B
:10230000002008BD084600207FB5FEF729FD002308
:1023100000906A466946064801930293039304932A
:10232000059305F045FE002007B05DF804FB00BFF3
:102330007D1500087FB50A4B93F8A902FEF710FD42
:10234000002300906A46694606480193029303936E
:102350000493059305F02CFE002007B05DF804FB04
:1023600008460020911500087FB5FEF7F9FC002310
:1023700000906A46694606480193029303930493CA
:10238000059305F015FE002007B05DF804FB00BFC3
:10239000211600087FB5FEF7E3FC002300906A4693
:1023A000694606480193029303930493059305F04D
:1023B000FFFD002007B05DF804FB00BF49160008D0
:1023C000006838B5FEF726FF00231A4C04F5157295
:1023D000C4F8502294F81E2284F81D02012A08BF76
:1023E00084F81E3284F81F3284F8203284F849328F
:1023F00004F036FE94F81D52042D16D1FFF74AFE64
:10240000207FFFF721FD637F002084F8A13294F83C
:10241000203084F8A63206F0FBFA0020FFF7BAFF5E
:10242000012384F8585284F8A0320120BDE83840D6
:1024300006F0AEB808460020044B83F81C0383F86E
:102440001D0383F828030020704700BF08460020C2
:1024500038B50C4C0C49D4F8D803FEF795FE254648
:1024600060B1D4F87803084920F00040FEF76EFE12
:1024700020B1002384F81C33002038BD012385F8E7
:102480001C33F9E708460020ACC52737044BD3F8C6
:10249000782383F81C03C3F814230020704700BF7F
:1024A0000846002038B50C4C0C49D4F8D803FEF788
:1024B0006BFE254660B1D4F87803084920F000404F
:1024C000FEF744FE20B1002384F81D33002038BD00
:1024D000012385F81D33F9E708460020ACC52737EE
:1024E000044BD3F8782383F81D03C3F81823002086
:1024F000704700BF0846002038B50C4C0C49D4F892
:10250000D803FEF741FE254660B1D4F878030849A8
:1025100020F00040FEF71AFE20B1002384F8283393
:10252000002038BD012385F82833F9E7084600204C
:10253000ACC52737044BD3F8782383F82803C3F8B6
:1025400024230020704700BF0846002001460148B0
:1025500001F054B9B1A801080122024B83F84722C7
:10256000704700BF084600200122024B83F8482232
:10257000704700BF084600200122024B83F8492221
:10258000704700BF0846002030B587B004F09CFDBE
:10259000012821D005F0D4FC002006F0BDF800246D
:1025A00006F038F9E5B2284604F068FD013401462A
:1025B0002846FFF7A9FC062CF4D1084B6846009387
:1025C0000023694601930293039304930593FFF755
:1025D000F7FE002007B030BD6A20FBE70000404056
:1025E0000522064B83F81D2293F81E2222B90122F0
:1025F00083F81E2206F084B8704700BF084600200A
:1026000038B500230F4C84F85832FFF771FA04F5FF
:102610001770FFF723FB054630B105F029FE0223B2
:1026200084F81D32284638BD04F51570FFF788F987
:10263000FFF7D6FF04F5157004F056FDFFF7FAF921
:10264000F0E700BF08460020012330B504460D46E0
:102650000E4887B080F8A43200F51570FFF770F9C6
:1026600029462046FFF7CCFF05F022FC0028FBD0CE
:102670006C46074D0FCD0FC495E8030084E80300B6
:1026800069460448FFF7BCFF07B030BD084600208C
:1026900058A70108EC480020012330B504460D4638
:1026A0000E4887B080F8A43200F51570FFF748F99E
:1026B00029462046FFF7A4FF05F0FAFB0028FBD0CF
:1026C0006C46074D0FCD0FC495E8030084E8030066
:1026D00069460448FFF794FF07B030BD0846002064
:1026E00058A701080449002070B5184B044693F818
:1026F000A0220E461D463AB1D3F89402144920F0A8
:102700000040FEF723FDF0B901232046314685F84D
:102710005832FFF7EDF90F48FFF7A0FA044630B141
:1027200005F0A6FD022385F81D32204670BD0A483B
:10273000FFF706F9FFF754FF074804F0D5FC0446FD
:10274000FFF778F9F1E78E24EFE700BF0846002095
:10275000ACC52737644800205C48002010B5204CE9
:1027600094F84732012B11D194F81F32012B0AD172
:1027700094F820223AB9022284F81F22194A84F8D8
:102780002032C4F85022002384F8473294F84832AB
:10279000012B0FD194F81F322BB1022B0AD194F8E0
:1027A0002032042B06D104F08FFC18B984F84802BB
:1027B000FFF7EAFEB4F84832B3F5807F0ED194F803
:1027C0002032013B022B09D9002384F8493205232A
:1027D00084F82032FFF704FF05F070F8002010BDE8
:1027E000084600205C7100207FB5094B93F81E322B
:1027F0005BB1084B6946009300236846019302933E
:10280000039304930593FFF7DBFD07B05DF804FB2A
:1028100008460020000040407FB5084B6A46009300
:10282000002369460648019302930393049305939A
:1028300005F0BEFB07B05DF804FB00BF00004040A0
:10284000C1230008FFF7E8BF7FB54FF08143009335
:1028500000236A4669460548019302930393049353
:10286000059305F0A5FB07B05DF804FBC123000844
:1028700003460A4A82B010689188927900908DF8D8
:102880000620DAB2062A8CBF202002AAADF8041076
:102890009CBF9B1813F8080C02B070478BA8010866
:1028A00070B5044610460E461546FEF759FA022347
:1028B000E372206156F825102046BDE8704000F014
:1028C0005BBF000010B50446FEF7A6FF03490246B1
:1028D0002046BDE81040FFF7E3BF00BF7CB301080E
:1028E000024B034993F81D22FFF7DABF0846002088
:1028F000E4B20108024B034993F81E22FFF7D0BF50
:1029000008460020B0AF0108024B034993F81F228C
:10291000FFF7C6BF0846002048B30108024B034931
:1029200093F82022FFF7BCBF0846002084B20108BC
:10293000024B034993F82122FFF7B2BF084600205B
:10294000C0B20108034B0449D3F8503293F84E202B
:10295000FFF7A6BF08460020F8B30108034B04495F
:10296000D3F8503293F84F20FFF79ABF0846002063
:1029700094AF0108034B0449D3F850321A79FFF79A
:102980008FBF00BF0846002034B30108034B044941
:10299000D3F8503293F84D20FFF782BF084600204D
:1029A00070B30108034B0449D3F8503293F8512017
:1029B000FFF776BF0846002064B30108034B0449C3
:1029C000D3F8503293F85220FFF76ABF0846002030
:1029D000E4AF0108034B0449D3F8503293F84C207C
:1029E000FFF75EBF08460020ECAF010810B5064BAC
:1029F0000446D3F8503293F85400FEF7B1F902239D
:102A0000E3722061002010BD08460020054B10B580
:102A10000446D3F85402FEF7A3F90223E3722061BF
:102A2000002010BD08460020064B10B5D3F85032E8
:102A300004461868FEF794F90223E372206100202F
:102A400010BD00BF0846002010B5154B044693F892
:102A50001F325BB9002303612289124B002003EB74
:102A60004213DB7A23730423E37210BD04F000FBEE
:102A70000D4B206193F88E31002BEDD1FDF71EFD3B
:102A800005A3D3E90023FDF76DFDFEF763F8206190
:102A9000E2E700BFAFF300800A8542A15028A43FBF
:102AA0000846002030B401081C700020000000001F
:102AB00010B50446104BD3F85032186C206193F8CF
:102AC0004E304BB9FDF7FAFC09A3D3E90023FDF71B
:102AD00049FDFEF73FF820612289084B002003EBF7
:102AE0004213DB7A23730423E37210BDAFF300803B
:102AF0000A8542A15028A43F0846002030B40108AE
:102B000038B50B4B04460089D3F85052FEF7BAFD96
:102B1000C1B22846FEF768FF2289064B206103EB0D
:102B20004213DB7A002023730423E37238BD00BF15
:102B30000846002030B4010838B50B4B0446008924
:102B4000D3F85052FEF79EFDC1B22846FEF73EFF75
:102B50002289064B206103EB4213DB7A00202373AA
:102B60000423E37238BD00BF0846002030B40108DA
:102B700038B50B4B04460089D3F85052FEF782FD5E
:102B8000C0B2083055F8203022892361054B00205F
:102B900003EB4213DB7A23730423E37238BD00BFD7
:102BA0000846002030B4010810B5044600F07CFB54
:102BB0002069FEF72FFB0349C2B22046BDE8104052
:102BC000FFF76EBE58AF010810B504460089FEF746
:102BD00081FD50B94FF080412069FEF7D5FA30B938
:102BE000204600F0A5FB002010BD0249F4E76D204F
:102BF00010BD00BF000040403823034A03FB002003
:102C0000D0F8E000704700BF0846002010B5382417
:102C10000B46084A04FB00241846C4F8E010064995
:102C2000FEF7F6F801464FF07E50FEF7A5F9C4F81E
:102C3000E80010BD08460020002474490000000090
:102C40002DE9F74F0546884600244FF0000ADFF8CB
:102C50009C90DFF89CB0E3B2494658F824000193F9
:102C6000FEF792FA38B3204B55F8240093F8A232BD
:102C700043BBFDF723FC16A3D3E90023FDF772FC49
:102C800015A3D3E90023FDF76DFC15A3D3E90023B9
:102C9000FDF792FD52465B4606460F46FDF7D4FE11
:102CA00008B156465F4639463046FDF753FF0146A8
:102CB0000198FFF7ABFF0134062CCCD1002003B004
:102CC000BDE8F08FFDF7FAFBDAE700BFAFF3008055
:102CD000666666666666394000000000005E0A416E
:102CE0000000000080842E4108460020ACC5273734
:102CF0000000F03F38B5056904460B492846FEF749
:102D000043FA20B108492846FEF736F920612046EB
:102D100000F0CAFD2089FEF7B5FC2169C0B2FFF7BB
:102D200075FF002038BD00BF0024744938B505691F
:102D3000044607492846FEF727FA20B104492846E9
:102D4000FEF71AF92061204600F0AEFD002038BDE4
:102D5000002474490122024B002083F84822704766
:102D60000846002008B504490069FEF70DFA08B1CD
:102D700001F0F8F9002008BDACC52737014BD3F8A6
:102D80004C0270470846002008B500F031FB0020D7
:102D900001F048FB002008BD08B500F029FB012028
:102DA00001F040FB002008BD08B500F021FB022027
:102DB00001F038FB002008BD08B500F019FB032026
:102DC00001F030FB002008BD054B0649D3F8503216
:102DD00093F84E20044B53F8222006F095BE00BF16
:102DE00008460020CBAE010800B40108054B064997
:102DF000D3F8503293F84E20044B53F8222006F0BB
:102E000083BE00BF08460020DBAB010800B4010808
:102E1000014906F04BBE00BF6AAD0108014906F04A
:102E200021BE00BF80AE0108014906F01BBE00BFF5
:102E30009DAD0108014906F015BE00BFA9AB010810
:102E4000014906F00FBE00BFCFAD0108014906F0F1
:102E500009BE00BF14AD0108014906F003BE00BF62
:102E60002DAD0108014906F0FDBD00BFB2AE01085D
:102E7000014906F0F7BD00BF50AB0108014906F05B
:102E8000F1BD00BFB6AD0108014906F0EBBD00BFC2
:102E900034AE0108014906F0E5BD00BF1BAE0108D4
:102EA000014906F0DFBD00BFC2AB0108014906F0D1
:102EB000D9BD00BFF3AB0108014906F0F7BD00BF63
:102EC00099AE010810B504461B4811F0A3FB20463B
:102ED000FFF77AFF2046FFF789FF2046FFF798FFAC
:102EE0002046FFF79BFF2046FFF79EFF2046FFF797
:102EF000A1FF2046FFF7A4FF2046FFF7A7FF2046CB
:102F0000FFF7AAFF2046FFF7ADFF2046FFF7B0FF0F
:102F10002046FFF7B3FF2046FFF7B6FF2046FFF736
:102F2000B9FF2046FFF7BCFF2046FFF7BFFF204652
:102F3000FFF7C2FF002010BD92A80108014906F06A
:102F4000B5BD00BFB0AC0108014906F0AFBD00BF80
:102F5000E3AC0108014906F0A9BD00BF0CAC0108B3
:102F6000014906F0A3BD00BF75AC0108014906F098
:102F70009DBD00BF41AC0108054B0649D3F8503256
:102F800093F84E20044B53F8222006F0BDBD00BF3D
:102F90000846002046AD010800B40108054B06496B
:102FA000D3F8503293F84E20044B53F8222006F009
:102FB000ABBD00BF0846002088AB010800B4010883
:102FC000014906F05DBD00BF63AE0108054B06492F
:102FD000D3F8503293F84E20044B53F8222006F0D9
:102FE00093BD00BF084600207EAD010800B4010873
:102FF0007FB500F1140504460069FEF70BF9094B93
:10300000C0B21E68084B019053F82030009502931F
:103010002A4604F118030549F06810F0B9FB04B022
:1030200070BD00BF1800002058AF0108B5A8010806
:103030000149FEF75DBB00BFD1A801080149FEF7B9
:1030400057BB00BFEBAA01080149FEF751BB00BF07
:10305000A7AA01080149FEF74BBB00BFC9AA010896
:103060000149FEF745BB00BF63A901080149FEF70E
:103070003FBB00BF32A901080149FEF739BB00BFC1
:10308000F9A801080149FEF733BB00BFDCA901081C
:103090000149FEF7ADBA00BFFCA901080149FEF7DE
:1030A000A7BA00BF65AA01080149FEF721BB00BF0E
:1030B0003EAA01080149FEF71BBB00BFB6A90108E3
:1030C0000149FEF715BB00BF95A901080149FEF7AC
:1030D0000FBB00BF13AB01080149FEF739BB00BFAE
:1030E00033AB01080149FEF733BB00BF69AB0108F0
:1030F000024B034993F8A222FEF75ABB0846002070
:103100004DAE010801220149FEF752BBE8AD0108AE
:1031100001220149FEF74CBB02AE010870B50589DA
:10312000044600F08BFC854208D22289044B2046DD
:10313000BDE8704003EB42135B691847152070BD72
:1031400030B4010870B50589044600F077FC85426B
:1031500008D22289044B2046BDE8704003EB42139D
:103160001B691847152070BD30B4010870B505897A
:10317000044600F063FC854208D22289044B2046B5
:10318000BDE8704003EB4213DB68184770BD00BF19
:1031900030B4010810B50446008900F05FFC60B14E
:1031A0002289074B03EB4213987A10F0020005D0F6
:1031B0002046BDE8104002F01FBD152010BD00BF25
:1031C00030B4010870B504460120FEF7EFFD00237E
:1031D000114D238104F11806208900F032FC18B942
:1031E000BDE8704005F0CAB8218949016B189A7A88
:1031F000D2070DD5DB69043123610522294430460D
:1032000011F07FFA2046FFF789FF2046FFF7C2FF43
:10321000238901332381DFE730B4010841F2EF2332
:10322000064A1380A2F84430054A1380A2F8843479
:10323000044A1380A2F80432704700BF885000206F
:10324000F8490020804E002041F2EF21104A1388F7
:103250008B421BD1B2F84410994217D10D4A138802
:103260008B4213D1B2F8841499420FD10A4A1388C1
:103270008B420BD1B2F804229A4207D1074B93F844
:103280004F30002B14BF5A20002070475A2070473F
:1032900088500020F8490020804E0020BC540020B7
:1032A0000023C37269207047028910B5064B04469B
:1032B00003EB42139B691878FDF752FD0223E3727A
:1032C0002061002010BD00BF30B401080289074B07
:1032D00010B503EB42139B6904461868FDF740FDE7
:1032E0000223E3722061002010BD00BF30B401084A
:1032F0000289054B03EB42139B691B68036103239F
:10330000C3720020704700BF30B401080289064B29
:1033100003EB42139A69DB7A126803730423026198
:10332000C3720020704700BF30B4010868207047A6
:10333000028938B5064B044603EB421300699D69C8
:10334000FDF768FF02232870E372002038BD00BF3C
:1033500030B4010810B504460069FDF75BFFC0B248
:10336000012804D82046BDE81040FFF7E1BF6E20D9
:1033700010BD10B504460069FDF74CFFC0B202282D
:1033800004D82046BDE81040FFF7D2BF6E2010BD24
:1033900010B504460069FDF73DFFC0B2032804D80C
:1033A0002046BDE81040FFF7C3BF6E2010BD0000EF
:1033B000028938B5064B044603EB421300699D6948
:1033C000FDF728FF02232860E372002038BD00BF0C
:1033D00030B401080189054B026903EB41139B6975
:1033E0001A600323C3720020704700BF30B4010885
:1033F0000289064B016903EB42139A69DB7A11607B
:1034000003730423C3720020704700BF30B4010867
:1034100038B50F4B04469B78BBB11D2564680CB9C9
:10342000002038BD94F90B305A1CF9D0204633B92E
:10343000FFF788FE013D15F0FF05EFD1F0E7FFF73C
:103440006DFE2046FFF7A6FEF4E7652038BD00BFFD
:103450008850002010B5014604460648FCF7B8FE27
:1034600030B121460448FCF7B3FE003018BF0120FC
:1034700010BD00BF23B4010826B401080422F0B532
:103480000C4685B001460DEB020011F03AF92146D9
:10349000062201A811F00FF900F0D0FA00219DF8E2
:1034A00004C09DF805709DF806409DF807509DF8F2
:1034B00008601B4B8AB2824202D34FF6FF7209E0CA
:1034C00093F804E0E64511D193F805E0BEF1000F52
:1034D00003D15FB9104605B0F0BDBE4506D193F8E3
:1034E00006E0BEF1000F04D1002CF3D001312033EF
:1034F000E0E7A645FAD193F807E0BEF1000F02D14C
:10350000002DF3D1E6E7AE45F0D193F808E0BEF127
:10351000000F02D1002EE9D1DCE7B645E6D1D9E7AC
:1035200030B4010810B5037E1BB300F11804214626
:103530001448FCF74DFEF0B121461348FCF748FE55
:10354000D8B121461148FCF743FEB0B121461048DE
:10355000FCF73EFE98B121460E48FCF739FE70B1EB
:1035600021460D48FCF734FE00280CBF0520012041
:1035700010BD184610BD022010BD032010BD042050
:1035800010BD00BF19B4010823B401081CB4010820
:10359000B1A801081FB4010825FF0108FF23C37269
:1035A000002300220381037303760375036203681B
:1035B00002610BB98372704793F90B20072A0ABF87
:1035C0009B7A93F90A300133F4E700002DE9F041CA
:1035D0000589044600F032FA85422AD2268920461F
:1035E000FFF7DCFF144D2681760104F11808311D28
:1035F0002944404611F057F8771904F1140339466D
:10360000184611F050F8227D22B1BA7A520707D538
:103610000023237535442B692046BDE8F041184747
:10362000FCF7E0FD00F118012144404611F03BF8A1
:10363000F0E7BDE8F08100BF30B4010807232DE9B1
:10364000F74304460025DFF8409000F11808C372E4
:10365000AEB2304600F0F5F910B903B0BDE8F08322
:10366000A9B209EB411101A811F01DF801A94046CA
:10367000FCF7AEFD30B904F12407A6853846FFF704
:10368000A5FF3C460135E3E730B40108002238B518
:10369000FF200124134B5A80134B03F59061A3F1D3
:1036A000480543F8245C23F81C2C03F81A4C03F853
:1036B000182C03F8190C03F80C2C43F8203C243385
:1036C0008B42ECD10723094C0949C4F86424626099
:1036D000A273E37304F11C0010F0E5FF04F128006D
:1036E00038BD00BF804E0020204A0020F84900204D
:1036F0008914020870B5FFF7C9FF00250446FFF7DB
:103700008DFD0120FEF752FB2581204602F070FA64
:10371000174B20699968FDF70FFD20B92046BDE8D9
:103720007040FFF74FBD04F0FFFD2581114D04F1FE
:103730001806208900F085F918B9BDE8704004F03A
:103740001DBE218949016B189B7ADB070BD504311B
:1037500005222944304610F0D4FF204602F048FAF2
:103760002046FFF7DBFC238901332381E1E700BF1B
:10377000D050002030B40108F8B5064608460F4680
:10378000FCF730FD0B4D6C882044B0F5007F0FD85E
:1037900004342C443946204610F085FF3846FCF7A7
:1037A00021FD6B8834620133184468800020F8BD25
:1037B0000D20F8BD804E002001461E2310B50D4C93
:1037C00094F90B20013209D0646814B90024204612
:1037D00010BD013B13F0FF03F2D1F7E70648FFF7F6
:1037E0004DFE4FF6FF7398422081EFD02046FFF741
:1037F000EDFEECE7204A002004FF010870B51E230F
:103800000E46124C94F90B20013209D0646814B9A9
:103810000024204670BD013B13F0FF03F2D1F7E70F
:1038200004F1180501460522284610F06AFF3146CA
:103830002046FFF7A1FF0028EAD129460448FFF7F8
:103840001DFE05232081E372E3E700BF204A00202C
:1038500004FF0108064B01469B78012B03D1054B61
:103860001B79012B02D10448FFF7C8BF0020704725
:1038700088500020B4540020B1A80108044B9B7864
:10388000012B02D1114602F0F7B806F0D7B800BFFD
:1038900088500020024B03610223C372002070474E
:1038A00000007E430000000010B504461048FEF7FB
:1038B00008F850B92069FCF701FE0BA3D3E90023F7
:1038C000FCF750FEFDF746F920612289094B21697A
:1038D00003EB42139A69DB7A116023730423E372CA
:1038E000002010BDAFF300806666666666663940EC
:1038F0005C48002030B401082DE9F8430646002456
:10390000114DA5F14008A5F11807335D06EB040938
:10391000BBB1FFF7BBFE05224946284610F0F1FE79
:1039200029460A48FFF7AAFDA8F830003846FFF7F5
:103930004DFE0634022203210020FFF79FFFAE2C2C
:10394000E3D10420BDE8F883384A002004FF0108D1
:1039500070B590B001AA1546084B03F1380614461D
:1039600018685968083303C4B3422246F7D118686F
:1039700020602846FFF7C0FF10B070BD70A7010897
:1039800070B58CB001AA1546084B03F12806144601
:1039900018685968083303C4B3422246F7D11B881C
:1039A00028462380FFF7A8FF0CB070BDACA7010824
:1039B00070B588B06A466D46094B03F11806144687
:1039C00018685968083303C4B3422246F7D118680F
:1039D0009B882060A3802846FFF78EFF08B070BD4B
:1039E000D6A7010838B5044600F118051149284644
:1039F00010F059FE2046FFF721FE0222032100208D
:103A0000FFF73CFF2046FFF7D3FF2046FFF7B8FF44
:103A10000949284610F047FE2046FFF70FFE002018
:103A200002220321FFF72AFF2046BDE83840FFF7B6
:103A30008FBF00BF26B401082AB4010840F28110EC
:103A40007047B0F59C7F2CBF002001207047A0F587
:103A5000AA7028288CBF002001207047B0F5AA7FEB
:103A60008CBF00200120704770B505460069FCF747
:103A700025FD02460B4606460C46FDF70DF838BB01
:103A800024F000444FF0FF32154B30462146FDF73D
:103A900003F838B94FF0FF32114B30462146FCF79E
:103AA000DDFFA8B12A890F4B03EB42139B7A1B075A
:103AB0000ED50D48FDF705FF50B92869FCF7FEFC4F
:103AC00005A3D3E90023FCF74DFDFDF743F828617A
:103AD00070BD00BFAFF300800A8542A15028A43F0B
:103AE000FFFFEF7F30B401085C48002041F2EF2275
:103AF000024B1A80A3F8A823704700BFD0500020C3
:103B000010B5094C4FF46B72002120460FF030FFC6
:103B1000FFF7ECFF054BA360054BE3604FF07E53CE
:103B200023610323A37010BDD0500020E11ADC43B1
:103B3000EC51783F41F2EF21064A13888B4206D1BF
:103B4000B2F8A803984214BF60200020704760209C
:103B5000704700BFD050002080B5734E734FFDF703
:103B600085FE0628FBD0FDF781FE022802D005F075
:103B700049FD80B9FEF7F2FD0228F0D003F0D8FD30
:103B80000228ECD0FFF760FB307050B1FEF7F4F87C
:103B900002281FD1E3E7CC20FEF7EEF80228DED0A2
:103BA000E8E7FFF7C7FF30700028EFD1FEF7B2F863
:103BB00030700028EAD104F01FF930700028E5D1F8
:103BC00005F090F830700028E0D100F05BFE307016
:103BD0000028DBD104F0F4FC0228C0D004F0C6FDBC
:103BE0000228BCD004F01EFE0228B8D002F070FCFF
:103BF0000228B4D000F000FB0228B0D000F062FC34
:103C00000228ACD000F00EFE0228A8D0FDF72CFF51
:103C10000228A4D0FDF730FE012813D104F048F9A2
:103C20001F289CD90020FDF741FEB87810B9404903
:103C300005F0CEFDFF2200213E480FF099FE002442
:103C40003D4D0DE004F034F9032888D9F2E70A2845
:103C500006D00D281FBF2B19013483F84400E4B2AD
:103C600006F0AEFBFF28F2D1002C3FF478AF324DC6
:103C700005F1440420462C64FCF7B4FA01302146D7
:103C8000A883632205F2433010F03BFD95F84440D1
:103C90000FF034FE2044437803F00303022B14BFDB
:103CA0002346A4F12003252B30D014DC212B2AD06D
:103CB000242B15D0182B23D0BB78012B2FD12C6CA3
:103CC000F72221461D4810F01CFD1C4A1C492046C5
:103CD00010F0A8FC1FE0482B02D00ADC3F2BEBD1F0
:103CE0000023286CBB7005F0B1FC164905F070FD8F
:103CF00035E77B2B0DD07E2BDED1FEF73DFC2EE78A
:103D000001F052FB2BE7FEF727FC28E7FEF72CFC1F
:103D100025E70123BB70286C01F078FB1FE7286CB6
:103D200000F0FEFDE1E700BF0C55002088500020A8
:103D300004FF010814510020D0500020135200202D
:103D400050E401081354002070B50F4C0646A37BC5
:103D5000C5B283B128460021FEF7D6F801230B48EF
:103D6000304480F823322846A16BFEF74FFF084B02
:103D70000220236170BD29460648FDF735FE014645
:103D80002846FEF7C1F8EEE75C0400200846002054
:103D9000853F00085C71002070B58CB004460E466B
:103DA00015460021182268460FF0E2FD1822002176
:103DB0000DEB02000FF0DCFD0CAB03EB84004FF0C9
:103DC0007E5340F8183C0A4B40F8306CC3F89452CC
:103DD00004F0B6F8FEF7D0FB06A96846FEF784FCAF
:103DE000044B0028187008BF02200CB070BD00BF43
:103DF000084600200C55002010B50D4C0D4B94F9D1
:103E000003201A44D278012A07D1E269616AFFF7D8
:103E1000C3FF094B0220236110BD94F90420134411
:103E2000DB78012BF5D1616AE26901F10041EEE72F
:103E30005C040020E44500203D3E000838B53823EE
:103E40000546094A094C03FB0023C0B2D3F8E4102D
:103E5000FEF7DCFEE269A1692846FFF79DFF044BEF
:103E60000220236138BD00BF084600205C0400200A
:103E7000053F000810B5044CE269A16AFFF78CFF0A
:103E8000024B0220236110BD5C040020493D000864
:103E900038B5114C04F054F894F83100FDF7D4FF14
:103EA00094F83000FDF782FF94F83200FDF786FFAA
:103EB0000A4D94F83300FEF70DFA636B05F51570A3
:103EC0000421C5F89432FDF70CFDFEF78DFC0020AF
:103ED00085F81E0238BD00BF5C04002008460020A3
:103EE00010B50446064BC0B2996BFEF78FFE204614
:103EF000FFF7CEFF002004F04BFBF02010BD00BF09
:103F00005C04002010B5094C094B94F903201344BC
:103F1000DB78012B03D0074B2361022010BD226AFE
:103F2000616AFFF739FF044BF6E700BF5C0400202D
:103F3000E4450020E13E0008753E000810B5044647
:103F4000A0B0FFF7A3FBA31C0DD10C48FFF782FC28
:103F50000222F0201146FFF791FC2046FFF798FF60
:103F6000F02020B010BD2046FEF782FC0449024636
:103F7000684610F057FB6846E8E700BF5DE40108BB
:103F800089E401082DE9F047441C704C23D17049A5
:103F9000D4F89C03FDF7F8F80746002840F0B180FC
:103FA0006B49D4F89403FDF7EFF8002840F0AA809D
:103FB0006749D4F89803FDF7E7F8002840F0C4807B
:103FC0006349D4F8A003FDF7DFF8002840F0BA8079
:103FD0006FF00100B0E002281ED15D49D4F89403CF
:103FE000FDF7D2F8002840F0AB805949D4F8980387
:103FF000FDF7CAF8002840F0A7805549D4F8A0037F
:10400000FDF7C2F8002840F09D800123514A84F852
:104010002132514B1A6156E00028E6D00128ECD03D
:10402000F3E7D6F8FC4000212046FDF78FF8002882
:1040300040F08180D6F8DC10D6F8D800FCF7DEFD21
:10404000214620F00040FCF7DBFD4149804620F08E
:104050000040FDF77BF800286DD15FFA87F94FEA41
:104060004905284605F0C8FA3B4C05F1010A607085
:10407000504605F0C1FA6278A0705040C1075AD589
:10408000D6F8F430277023F00043E361D6F8F83017
:1040900023F000432362D30718D5D6F8FC3008F18B
:1040A00000486362D6F80031E57084F804A0C4F8D3
:1040B0001880E078A36205F09FFA00F0FD00012867
:1040C00013D0264B23610220BDE8F087D6F8FC30E0
:1040D00084F803A003F100436362D6F80031257130
:1040E000C4F8188003F10043E3E7207905F084FA6F
:1040F00008B9FF2323714846FEF77EFD184BA063E5
:10410000E0E702273826002206FB0746D6F8F4002F
:10411000E31983F8232220F000400D49FDF716F83B
:1041200048B9D6F8F8000A4920F00040FDF70EF82B
:1041300000283FF476AF3846BDE8F047FFF7FEBEF3
:104140000027DFE70327DDE70127DBE7084600203C
:10415000ACC52737913E00085C040020853F00086D
:10416000F93D000838B51C4D1C4CD5F85002FDF740
:10417000A8FB84F83000D5F85002FDF79FFB84F8C7
:104180003100D5F85002FDF7A2FB84F83200D5F8D3
:104190005002FDF79FFB84F83300D5F85002FDF77D
:1041A0009EFB60630120FDF701FE0120FDF706FE86
:1041B0000020FDF749FE0120FEF78CF80123A373D0
:1041C000FF232370064B00202361032385F821027F
:1041D00085F81E3238BD00BF084600205C04002070
:1041E000853F000808B5FFF7BDFF0020014B98731D
:1041F00008BD00BF5C04002010B50A4B93F81E32C6
:10420000032B0AD1FDF769FB012808D0BDE8104057
:10421000054B1A6993F900001047032010BD0220D6
:1042200010BD00BF084600205C040020024A034B7A
:1042300002205A61704700BF4142000898040020E4
:104240002DE9F04F82464FF07E5591B018220021A3
:1042500004A80FF08DFB002118220AA80FF088FB9C
:1042600010AB03EB8A0343F8185C4F4B9E685C6805
:1042700030462146D3F80C80FCF772FF00B94B4D55
:1042800031462046FCF7BAFCFCF79EFF0028B8BF79
:104290004042FCF769FD464B8146C3F8948203F027
:1042A0004FFEFEF769F91A230026424FDFF814B1DA
:1042B00001934FF080414846FCF766FF3A4C4FEAC5
:1042C0008A0350B1494638460293FCF73FFF029BF0
:1042D00018B1019A013A019215D12169344A04A812
:1042E000C2F8941210AA134462680AA943F8302C49
:1042F000FEF7FAF9304B187010B902202F4B6361AA
:1043000011B0BDE8F08F10AA134429463846029335
:10431000FCF77EFD0146A068FCF772FC029B0AA92F
:1043200043F8300C224B04A8C3F89482FEF7DCF962
:10433000214B18700028E3D14FF07E513046FCF736
:104340005FFC59460646FCF717FEFCF7B7F8024635
:104350000B4600201A4913F0C3FED4F80C80CDE9B7
:10436000020141462069FCF749FC0022144B044637
:10437000DDE90201FCF720FAFCF7ECFB01462046E0
:10438000FCF746FD4146FCF73BFC31468046304693
:10439000FCF736FC5946FCF7EFFD01463846FCF7C2
:1043A0002FFC074685E700BF98040020000080BF6F
:1043B000084600200AD7233C0C550020C9430008BA
:1043C000000024400000C84138B50546124C03F0F7
:1043D000B7FD216AE8B2FEF719FC607FFDF734FDF6
:1043E000207FFDF7E3FCA07FFDF7E8FCE07FFDF711
:1043F00071FFA3690024094D042105F51570C5F866
:104400009432FDF76EFAFEF7EFF9054885F81E4283
:1044100010F000F9204638BD98040020084600201E
:10442000B7E4010870B5224D0646D5F85002FDF7F5
:1044300048FA204C2077D5F85002FDF73FFA607714
:10444000D5F85002FDF743FAA077D5F85002FDF7F2
:1044500041FAE077D5F85002FDF741FAA061304605
:10446000FEF7CAFB20620120FDF7A0FC0020FDF74B
:10447000A5FC0020FDF7E8FC0120FDF72BFF0E4B0B
:104480003146E360382303FB0653D3F8D4300B489E
:104490002361FDF79BFAA060FEF770FC084B2670C5
:1044A0006361042385F81E326060002070BD00BF88
:1044B0000846002098040020000020415C71002084
:1044C0002D42000810B50A4B93F81E32042B0AD176
:1044D000FDF703FA012808D0BDE81040054B5A69E2
:1044E00093F900001047032010BD022010BD00BF4B
:1044F000084600209804002010B50A4C0A4B227987
:104500001344DB781BB1094B0220236010BD04F17A
:10451000540104F13C00FEF7E7F8054B1870002841
:10452000F1D010BDBC040020E44500203545000852
:104530000C5500202DE9F0410026134D1349287930
:10454000134C0144C97804F50A784B1E594259416D
:1045500084F82912F7B2384602F0A8FD0146384621
:10456000FDF7D2FC3946D4F85002FDF72FFA013698
:10457000062E48F8040FEDD1064800F047FF064B21
:1045800002202B60BDE8F081BC040020E44500203F
:10459000084600201EE501080146000870B5144CCD
:1045A00003F0CEFC6279134B21791A70A2790B4487
:1045B000DA72002505F01EF804F10806E8B256F894
:1045C000041F0135FEF722FB062DF7D1207AFDF7F7
:1045D0003BFCE079FDF7F2FB04210748FDF781F988
:1045E000FEF702F90022054B83F81E2270BD00BFC2
:1045F000BC040020E44500205C4800200846002060
:1046000008B5FFF7CBFF002008BD000010B5044639
:10461000A0B0FFF73BF8A31C0CD10B48FFF71AF929
:104620000222FA201146FFF729F9FFF7B7FFFA2017
:1046300020B010BD2046FEF71BF90449024668462B
:104640000FF0F0FF6846E9E7C1E40108EBE4010878
:104650002DE9F041022300254FF038083A4C3B4E3B
:1046600084F8295284F81E32EFB23846FEF7C4FAB5
:1046700008FB054346F8040FD3F8E4103846FEF76C
:10468000C5FA3946D4F85002FDF7A0F90135062DD8
:10469000B061E9D12E49A1F1180005F04FFAFBF7FE
:1046A0000DFF27A3D3E90023FCF7CEF918B16FF073
:1046B0000100FFF7ABFF0325264E274F306B39462D
:1046C00020F00040FCF760FD60B1B1693068FCF794
:1046D00095FA394620F00040FCF756FD10B168B25B
:1046E000FFF794FF0135EDB2062D06F10406E5D182
:1046F00004231A4D00262B71194BDA7BAA71012273
:10470000DA731A781E706A7104F074FFD4F85002DC
:10471000FDF7D4F82872D4F85002FDF7D8F8E87104
:104720003046FDF74BFB3046FDF78EFB304604F07C
:104730006FF90C4B02202B60BDE8F081AFF30080D5
:10474000A8C64B378941D03F08460020C40400204A
:10475000F8040020EC040020ACC52737BC0400207E
:10476000E4450020F9440008F8B5274B054693F8C6
:10477000A0220C461E4642B1D3F89402234920F0F1
:104780000040FCF7E3FC002839D120681F4920F0E5
:104790000040FCF7DBFC68B160681C4920F0004079
:1047A000FCF7D4FC30B1A068184920F00040FCF7B9
:1047B000CDFC30BB2B46164D03F118072A4618686E
:1047C0005968083303C2BB421546F7D12346114C42
:1047D00003F11805224618685968083303C2AB4232
:1047E0001446F7D1182200210B480FF0C1F802231C
:1047F0000A4A86F829320A4B00201A60F8BD8E203A
:10480000F8BD8620F8BD00BF08460020ACC527379C
:10481000F80400201005002034480020514600080C
:10482000BC04002010B50B4B93F81E22022A03D0C3
:1048300093F82932022B08D1FDF74FF8012806D052
:10484000BDE81040044B1B681847032010BD022030
:1048500010BD00BF08460020BC04002041F2EF223A
:10486000014B9A841A8070477C54002008B5282296
:10487000002103480FF07CF8BDE80840FFF7EEBFC9
:104880007C54002041F2EF21054A938C8B4205D1E4
:104890001088984214BF5C20002070475C2070474D
:1048A0007C54002038B505460846FBF707FE13F098
:1048B00063FBFCF707F9024C04EBC504A06038BDAC
:1048C0007C54002008B5034B03EBC0008068FCF764
:1048D0004BFA08BD7C540020F8B50446FBF7EEFD0A
:1048E00013F0CAFB06460F4620460B49FCF790FA28
:1048F000FBF7E4FD002204460D46084B30463946DE
:10490000FBF730FE02460B4620462946FBF776FCB5
:10491000FCF700F9C0B2F8BD0000204100002440BF
:104920002DE9F04F4FF00009D04C8BB094F81D32B8
:104930000546022B8DF8239000F014840DF1230717
:10494000804683463E460378CDF8189005939BF841
:104950000030002B40F0A280A94699F80030002BCF
:1049600040F0D0803B78002B00F016810EF0C6FF9F
:1049700097F80090B84609F1010A10F80A3001379B
:104980001B07F3D40EF0BAFF10F80A3003F003034C
:10499000012B08BF09F12009B9F16D0F00F0D68095
:1049A0003046002298F80030002B40F0EE80059B46
:1049B0002F2B00F0D98303780BB1FDF7C7FD102230
:1049C0000021AB480EF0D4FF60220021A9480EF070
:1049D000CFFF60220021A8480EF0CAFFA748FCF7CD
:1049E0006BFF4FF000094FF07E58A14E84F82D0365
:1049F0002B78002B00F0BA830EF080FF95F800A012
:104A00005044437803F00303012B40F0A7846B78F4
:104A10006F1C302B40F00283AB78582B40F0FE82A5
:104A20004F460235AAF14103192B00F2E88001A29A
:104A300052F823F0C54F0008CF4F0008D94F0008A7
:104A4000FF4B0008FF4B0008894F00089D4B0008F2
:104A5000FF4B0008E34F0008ED4F0008F74F000838
:104A6000F1490008554E00080B500008FF4B0008A4
:104A7000934F0008FF4B0008015000089D4F0008AD
:104A80006F4F0008FF4B0008FF4B0008FF4B00086A
:104A9000A74F0008B14F0008BB4F000818F8013BB2
:104AA00013B98BF8003052E7282B01D03B2B05D1EE
:104AB0009DF8183047468BF8003048E70EF01EFF8F
:104AC00018F8019C09F1010A10F80A10480706D1EC
:104AD00049466B480FF0D9FD00283FF438AF0BF181
:104AE000010107910EF00AFF10F80A00079900F083
:104AF0000300022814BF4B46A9F120038BF80030B5
:104B00008B4624E72E2B3FF42DAFC8460EF0F6FE61
:104B100018F8013B18444378590715D499F8013027
:104B2000302B11D10EF0EAFE99F802301844437888
:104B30005A0709D598F80030002B3FF40EAF98F8CB
:104B4000013008F8013BF5E7C14606E798F8017027
:104B50000EF0D4FE3844437803F00303012B08BF62
:104B60002037732F7FF41CAF98F802700EF0C6FE4A
:104B70003844437803F00303012B08BF2037672F25
:104B80007FF40EAF08F103000BE7292B08BF88F86C
:104B9000002008F1010805E7304608E73846FCF731
:104BA00039FBC0B231283FF423AF40D8122800F0BF
:104BB000A58018D8032800F08E8007D8012800F0BF
:104BC00082804FF0010378D9022277E00A2800F0B2
:104BD0008680112800F08D80042810D10D2384F8E0
:104BE0002C330123B5E01C2800F0A18009D814283B
:104BF00000F08F80C0F08B80152800F09480832512
:104C00008CE2262800F0AE8028283FF4F1AE1E2862
:104C1000F5D13846FFF760FE002800F0A18001289A
:104C2000EDD1062384F88C0384F82C335DE03D2815
:104C300000F0B48026D8382800F0AA800CD8362896
:104C400000F0988000F29F803528D8D1012384F8A5
:104C5000603384F8C033CBE63A2800F09D80C0F082
:104C600099803B28CBD106238EE000BF0846002068
:104C7000A454002094490020344900205C480020BE
:104C80002BE501085B2800F0B9800BD8502800F014
:104C90009A805A2800F09B804028B0D1022384F8E3
:104CA00062338CE05D2800F0CB80C0F0B7805E28D6
:104CB000A5D1012384F85833C6E0002284F82D23BF
:104CC00084F88D3303E084F82D0384F88D03737822
:104CD000013373708CE684F82D030123F0E7082379
:104CE00084F82C33012384F88C3333780133337008
:104CF0007EE6002384F85D33012302E0012384F87B
:104D00005D3384F8BD33B3780133B37070E60223AA
:104D1000F0E7002384F85E33012384F8BE3373790F
:104D20000133737164E6012384F85E33F5E7384696
:104D3000FFF7D2FD04283FF662AFDFE800F003057D
:104D4000070D0F000523CBE70423C9E7012384F8EF
:104D50002C3384F88C334BE6022340E703233EE7F1
:104D60000723BDE73846FFF7B7FD02287FF447AFBA
:104D70000E2334E7012384F85F3384F8BF33737A5A
:104D80000133737234E6022384F85F330123F4E7BE
:104D90000323F9E70423F7E70523F5E73846FFF790
:104DA0009BFD50B101287FF42AAF84F8620384F898
:104DB000C203B37A0133B3721AE684F862030123A3
:104DC00084F8C233F5E7042384F82D3385E73846A9
:104DD000FFF782FD60B101287FF411AF002384F852
:104DE0006433012384F8C433F3780133F370FFE5AF
:104DF000012384F8630384F8C333F5E73846FFF7EB
:104E00006BFD38B101287FF4FAAE84F8640384F8AE
:104E1000C403E9E7012384F86333ECE73846FFF77E
:104E20005BFD03283FF6EBAEDFE800F00204060866
:104E3000092355E70A23D2E60B23D0E60C23CEE65E
:104E4000002384F85833012384F8B83333790133CD
:104E50003371CDE53846FCF7DDF980B2092864D01E
:104E600018D8042845D00CD802281BD038D80023E5
:104E700084F82E33012384F88E33F37A0133F372EE
:104E8000B6E506283CD039D307283FD0082846D0BD
:104E9000842543E133285BD012D830284AD005D886
:104EA0001E28F5D1012384F82E33E4E731284AD0B7
:104EB0003228EDD1012384F8593384F8B9333EE028
:104EC00073284BD005D83C28D1D07228E0D10F23CD
:104ED00085E6C92844D0B0F5C87FD9D112237EE633
:104EE000012384F86A3384F8CA33737B0133737304
:104EF0007EE5022384F86A330123F4E70023F9E70F
:104F0000012384F8673384F8C73371E5012384F8FB
:104F1000683384F8C833B37B0133B37368E5012386
:104F200084F8693384F8C933F5E7002384F86933DA
:104F30000123F7E7012384F85B3384F8BB33F37B69
:104F40000133F37354E5002384F85B330123F4E762
:104F5000012384F8743384F8D433F0E710233EE659
:104F60003846FFF7B9FC032892D1112337E63846BB
:104F7000FBF7A4FA13F080F8FBF7CCFD012384F8CB
:104F8000660384F8C63333E5C4F84C73C4F8AC83C5
:104F90002EE5C4F87873C4F8D88329E5C4F86C7397
:104FA000C4F8CC8324E5C4F83473C4F894831FE5B3
:104FB000C4F83873C4F898831AE5C4F83C73C4F88D
:104FC0009C8315E5C4F84073C4F8A08310E5C4F8C9
:104FD0004473C4F8A4830BE5C4F84873C4F8A883E9
:104FE00006E5C4F88073C4F8E08301E5C4F884736F
:104FF000C4F8E483FCE4C4F88873C4F8E883F7E4F5
:10500000C4F87C73C4F8DC83F2E43846FCF702F998
:105010000123C4F83003C4F89033E9E409A9384601
:1050200010F0BAF9099DAF4240F0A281662575E003
:10503000D4F87803FDF75EF93070002800F036816F
:1050400005466BE0FDF700F905465AE0C449A1F1B9
:105050006000FDF7F9FAF7E7FDF706F9F4E7C04954
:10506000A1F16000FDF718FBEEE7FFF77BF8EBE737
:10507000BB49A1F16000FCF75FFFE5E7FFF7B2F87D
:10508000E2E7B749A1F16000FFF76EFBDCE7D4F877
:105090007803FCF7BFF8B24AC0B2A2F16001FCF796
:1050A00097FED1E7AE49A1F16000FCF78DFFCBE799
:1050B000FCF7F0FFC8E7FDF717F8C5E7FDF732F892
:1050C000C2E7FDF74DF8BFE7FDF786F8BCE7A44956
:1050D000A1F16000FDF7B4FDB6E7FDF7A5F8B3E771
:1050E00094F860139F48FCF739FC94F82D33042B97
:1050F00007D8DFE803F0171D23230300042384F8F7
:10510000583200219748FCF729FC94F88E33012B84
:1051100004D194F82E3313BBFDF794FB28460BB053
:10512000BDE8F08F8E49A1F16000FDF769FA8BE7C9
:105130008B49A1F16000FDF7D7FA85E70293D4F817
:105140007C3387490193D4F88833D4F880230093C3
:10515000A1F16000D4F8843300F062FD74E7FDF73C
:1051600073FBDBE7CB25D9E70325D7E77E4ED4F8E1
:1051700030033370FCF7BCFB94F8B85325B194F8B6
:105180005803FDF7A7F80546D4F8AC03FCF742F83E
:1051900010F0FF0F04D0D4F84C03FDF775F8054666
:1051A000D4F8B003FCF736F810F0FF0F07D0D4F8AE
:1051B0005003FCF72FF8C0B2FDF768F90546D4F8A4
:1051C000B403FCF727F810F0FF0F07D0D4F854030E
:1051D000FCF720F8C0B2FDF783F90546D4F8CC03FC
:1051E000FCF718F810F0FF0F04D0D4F86C0303F0AC
:1051F00025FC0546D4F8D003FCF70CF810F0FF0F9F
:1052000007D0D4F87003FCF705F8C0B2FDF792F9A7
:10521000054694F8C63323B194F86603FDF774F895
:10522000054694F8C73323B194F86703FDF782F875
:10523000054694F8CA3323B194F86A0303F0E8FBF7
:10524000054694F8C83323B194F86803FDF78CF849
:10525000054694F8C93323B194F86903FDF79AF829
:10526000054694F8B93323B194F85903FDF7F0F8E3
:10527000054694F8BA3323B194F85A03FDF712F9AE
:10528000054694F8D43323B194F87403FDF734F948
:10529000054694F8BB3323B194F85B03FDF7CCF8D3
:1052A000054694F82C330D2B3FF4C2AE94F8BD3371
:1052B00023B194F85D03FCF771FD054694F8BE3305
:1052C00023B194F85E03FCF771FD054694F8BF33F3
:1052D00023B194F85F03FCF7B7FD054694F8C23399
:1052E00023B194F86203FCF7FDFF054694F8C3333D
:1052F00023B194F86303FCF761FD05461B4C94F859
:105300002C33122B3FF6FDAE01A252F823F000BF62
:10531000E15000086B500008715000087D500008F3
:10532000455000084D500008595000085F500008D3
:105330008F500008A5500008B1500008B750000871
:10534000BD5000080351000883500008C3500008F6
:10535000C9500008CF500008DB5000086525DDE685
:105360009C4900205C4800200C5500200846002085
:10537000FBF7F0FB0746FFF755BB00BF10B505492B
:105380000446FEF7F9F9044B187008B90523E372D7
:1053900010BD00BF135400200C550020006AFFF719
:1053A000BFBA7047704770470122024B83F82C2028
:1053B000704700BFD050002038B54FF082410546FD
:1053C0000069FBF7E1FE044630B92846FEF710F805
:1053D00004F010F9204638BD6D2038BD014904F0B5
:1053E0007BBB00BF2EE50108014904F075BB00BF7F
:1053F0004AE50108014904F06FBB00BF68E50108F8
:10540000014904F069BB00BF87E501082DE9F04FB1
:105410008BB00446FEF73AF900260546204604966E
:10542000FAF7E0FEB0F5007F42D82746B04604F117
:10543000FF3919F8016FCEB9B0463E70B54E86F807
:105440000080B8F1000F06D11E27013F17F0FF07BB
:1054500031D14FF07008022200214046FEF70EFACB
:10546000012003F095F80BB0BDE8F08FB8F1000F04
:1054700016D1282E11D0202EDBD97F2ED9D00EF0B8
:105480003DFA3044437807F1010A03F00303012B8E
:1054900008BF20363E705746CBE74FF00108EEE7D5
:1054A000B6F129083E7018BF4FF001080137C0E778
:1054B0004FF06B08C2E7984B04F109090693974B2C
:1054C0001A889B78ADF80C208DF80E30944B07931A
:1054D000944B18689B8808902846ADF82430FEF756
:1054E0005DF8A04606A898F8001001340FF0CDF83A
:1054F00040BBA14608F1220A4C4603A8217809F1D5
:1055000001090FF0C2F810B30022A24605F11809F4
:105510000AF8012B4146062248460FF0F2F804F142
:105520000A080EF0EBF954461AF801BB58444178CA
:105530004B070FD1594608A80FF0A7F850B9C2453C
:10554000EFD101E04C45CCD14FF06F0883E7CA455D
:10555000D2D1F9E7BBF16E0F05D0BBF1220F06D116
:105560006378222B03D10023EB7200239FE00EF01F
:10557000C5F92178084490F8018018F0040801D199
:105580002D2953D105A920460FF006FFFBF7E2FABB
:10559000059B2861A34200F0B9800423EB722046EA
:1055A00007A90FF0C3F804460028CDD003787D2B5F
:1055B00008BF013423782C2B3DD04FF00008013474
:1055C0009DF8102005F1140332B11846032204A9F6
:1055D00001930FF096F8019B49461846FDF74EFFE0
:1055E0004FF6FF729042288100F08A80FEF72FFA72
:1055F00040B14846FDF72EFF20B10322494604A8DA
:105600000FF07FF86D68002D3FF423AFB8F1000F65
:105610007FF41BAF444C94F93330002B5DD104F17F
:105620002800FDF78FFD8046307014E77B2905D1F7
:1056300007230134EB724FF00208C1E7222930D171
:10564000052204F1010BEA7258460FF01EF805908E
:1056500000283FF479AF80F800805846FAF7C2FD81
:10566000022811D96278302A0ED1A278782A0BD17B
:105670004246414658460FF01FFF03232861EB7254
:10568000059C013405948AE759462846FEF774F8CC
:10569000804630700028F3D05C46B8F1020F8FD9F5
:1056A000D9E6742905D10123EB724FF07E532B61AB
:1056B00075E7662901D1012356E75B297FF444AFE2
:1056C00006232146EB722846FEF756F880463070D6
:1056D0000028E2D14FF06708BDE6144B93F81D3265
:1056E000022B10D004F12800FDF718FD8046307021
:1056F00000287FF4B0AE04F12800FDF74BFDAAE6C8
:105700004FF06408A7E64FF0CB08A4E64FF0660818
:10571000A1E600BF0C5500207B2C22005CE60108AE
:105720007D2C22005FE60108F84900200846002091
:105730002DE9F74FA2F10803CB18009390F90A3036
:10574000054601937B230B700023884691461F4634
:105750004FF0000B4C1C95F90B20013278D01BB197
:105760002C23013404F8013C504B05F118029B78BE
:105770007BBB4F4920460EF055FF95F90B30044492
:10578000042B28D12869FAF799FE02460B46824677
:105790000E46FBF781F988B926F000464FF0FF323C
:1057A000444B50463146FBF777F948B94FF0FF328A
:1057B000404B50463146FBF751F908B9C5F810B0D7
:1057C0002846FEF751F92A7B2969204604F07AFA27
:1057D00014E03949CEE72BB9384920460EF063FF73
:1057E00004342BE0022B0BD12869FAF767FE02463E
:1057F0000B46204632490EF015FFC0B204441DE0AE
:10580000032B05D12A692F4920460EF00BFFF4E740
:10581000052B02D12A6A2C49F6E7062B02D12A6A07
:105820002A49F1E7012B09D129492869FBF78EFCA8
:10583000B0B1204627490EF036FF053495F90B30FC
:10584000072B09BF7B2301232370002308BF0134EA
:10585000009A944206D34FF6FF7003B0BDE8F08F74
:105860001D49BAE76D68E2195DB17D2095F90A70AE
:10587000111B49B28F42BFF66EAF04F8010B012332
:10588000F4E77D21131B01985BB298420BDB2046A5
:1058900012490234C1440EF006FF4C45DBD8A4EB9C
:1058A0000804A0B2D9E704F8011BEBE7B4540020C8
:1058B00075E60108FFFFEF7F79E601087FE6010842
:1058C0000EFF010884E601088CE6010891E6010854
:1058D000ACC5273796E601089CE601085AE40108A2
:1058E00010B5074C4FF400722146FFF721FF054B1E
:1058F0002046BDE810401B68D9680DF0CFBF00BF3F
:1059000013520020180000202DE9F0414D4E8AB0BE
:1059100033780746002B00F08C806F2857D1FDF7B5
:10592000B5FE4949494CA1F2FF2004F0B0F9014607
:105930004748FDF763FF94F90B30013370D1454DB3
:105940000122AB8B444900933B46002705A80EF08B
:1059500069FE05A92046AF83FDF70EFF73783F4926
:10596000A372062304F11800E3720EF09CFE676038
:105970004FF4007205F243113948FFF7D9FEB0F534
:10598000FC7F2E4655D804B22146731893F8433154
:10599000302B51D1334D0131294403A80EF083FE41
:1059A000331993F843312C2B49D1A1B22D4804F07F
:1059B00007FA013403AB02462B4928190EF032FED8
:1059C0002A4B28481B68D9680DF068FF31E0284B46
:1059D0001E4C93F81D32002BADD0FF25DFF89480CC
:1059E0002046FDF79FFD0028A5D0022803D1F379BA
:1059F00093B9E57210E0042801D13379F8E705285E
:105A00000AD1B379002BF4D02069414620F0004040
:105A1000FBF79CFB0028ECD16468002CE0D18AE7FE
:105A20006468002C87D14FF400720E490C48FFF7D0
:105A30007FFE0AB0BDE8F081013909B2A5E7013C5B
:105A400024B2ADE7B454002013540020204A0020B3
:105A50001FB40108D050002065E601085CFF010872
:105A6000FC4900201352002070E6010818000020B5
:105A700008460020ACC52737012902D0022903D0EF
:105A800070470248FFF72CBFFFF73EBF204A0020B7
:105A900070B505691C492846FBF776FB064688BBAE
:105AA0002846FBF7B7FB194C4FF07E512070E6708B
:105AB00026716671A671E6712846FBF75BFB08B19B
:105AC0000123E3704FF080412846FBF753FB08B1F8
:105AD000012323710E492846FBF74CFB08B1012333
