:020000040800F2
:10000000000002201D360108D99F0008DB9F000870
:10001000DD9F0008DF9F0008E19F0008000000004E
:1000200000000000000000000000000071C3000894
:10003000E39F00080000000001C4000845C4000858
:100040006D3601086D3601086D3601086D36010800
:100050006D3601086D3601086D3601086D360108F0
:100060006D3601086D3601086D3601086D360108E0
:100070006D3601086D3601086D3601086D360108D0
:100080006D3601086D3601086D3601086D360108C0
:100090006D3601086D3601086D3601086D360108B0
:1000A0006D360108E59F00086D3601086D360108C0
:1000B000A1890008AD890008B98900086D360108DA
:1000C0006D3601086D3601086D3601086D36010880
:1000D0006D3601086D3601086D3601086D36010870
:1000E0006D3601086D3601086D3601086D36010860
:1000F0006D3601086D3601086D3601086D36010850
:100100006D3601086D360108C58900086D36010895
:100110006D3601086D3601086D3601086D3601082F
:100120006D3601086D3601086D3601086D3601081F
:100130006D360108F19F00086D3601086D36010823
:100140006D3601086D3601086D3601086D360108FF
:100150006D3601086D3601086D3601086D360108EF
:100160006D3601086D3601086D3601086D360108DF
:100170006D3601086D3601086D360108000000007B
:040180006D360108CF
:1001900010B5054C237833B9044B13B10448AFF3C1
:1001A00000800123237010BDEC010020000000003E
:1001B00020A6010808B5034B1BB103490348AFF360
:1001C000008008BD00000000F001002020A601080A
:1001D00010F8012B11F8013B012A28BF9A42F7D0F1
:1001E000D01A7047034613F8012B002AFBD1181AC6
:1001F0000138704781F0004102E000BF83F0004306
:1002000030B54FEA41044FEA430594EA050F08BFB1
:1002100090EA020F1FBF54EA000C55EA020C7FEA75
:10022000645C7FEA655C00F0E2804FEA5454D4EBF2
:100230005555B8BF6D420CDD2C4480EA020281EABC
:10024000030382EA000083EA010180EA020281EAF4
:100250000303362D88BF30BD11F0004F4FEA013146
:100260004FF4801C4CEA113102D0404261EB410155
:1002700013F0004F4FEA03334CEA133302D05242DB
:1002800063EB430394EA050F00F0A780A4F1010497
:10029000D5F1200E0DDB02FA0EFC22FA05F28018D1
:1002A00041F1000103FA0EF2801843FA05F35941B7
:1002B0000EE0A5F120050EF1200E012A03FA0EFC36
:1002C00028BF4CF0020C43FA05F3C01851EBE37160
:1002D00001F0004507D54FF0000EDCF1000C7EEB7D
:1002E00000006EEB0101B1F5801F1BD3B1F5001FBB
:1002F0000CD349085FEA30004FEA3C0C04F10104DA
:100300004FEA445212F5800F80F09A80BCF1004F02
:1003100008BF5FEA500C50F1000041EB045141EA84
:10032000050130BD5FEA4C0C404141EB010111F485
:10033000801FA4F10104E9D191F0000F04BF014630
:100340000020B1FA81F308BF2033A3F10B03B3F10E
:1003500020020CDA0C3208DD02F1140CC2F10C029E
:1003600001FA0CF021FA02F10CE002F11402D8BFFC
:10037000C2F1200C01FA02F120FA0CFCDCBF41EAC8
:100380000C019040E41AA2BF01EB0451294330BD97
:100390006FEA04041F3C1CDA0C340EDC04F1140474
:1003A000C4F1200220FA04F001FA02F340EA03004B
:1003B00021FA04F345EA030130BDC4F10C04C4F191
:1003C000200220FA02F001FA04F340EA0300294671
:1003D00030BD21FA04F0294630BD94F0000F83F4BB
:1003E000801306BF81F480110134013D4EE77FEA9E
:1003F000645C18BF7FEA655C29D094EA050F08BFEA
:1004000090EA020F05D054EA000C04BF19461046CA
:1004100030BD91EA030F1EBF0021002030BD5FEA0E
:10042000545C05D14000494128BF41F0004130BD36
:1004300014F580043CBF01F5801130BD01F000458A
:1004400045F0FE4141F470014FF0000030BD7FEAFD
:10045000645C1ABF194610467FEA655C1CBF0B46F8
:10046000024650EA013406BF52EA033591EA030F0F
:1004700041F4002130BD00BF90F0000F04BF002107
:10048000704730B54FF4806404F132044FF000053A
:100490004FF0000150E700BF90F0000F04BF0021B3
:1004A000704730B54FF4806404F1320410F0004519
:1004B00048BF40424FF000013EE700BF42004FEA14
:1004C000E2014FEA31014FEA02701FBF12F07F4391
:1004D00093F07F4F81F06051704792F0000F14BF8E
:1004E00093F07F4F704730B54FF4607401F00045D2
:1004F00021F0004120E700BF50EA010208BF704729
:1005000030B54FF000050AE050EA010208BF70471D
:1005100030B511F0004502D5404261EB41014FF486
:10052000806404F132045FEA915C3FF4DCAE4FF08A
:1005300003025FEADC0C18BF03325FEADC0C18BF71
:10054000033202EBDC02C2F1200300FA03FC20FAC2
:1005500002F001FA03FE40EA0E0021FA02F114440F
:10056000C1E600BF70B54FF0FF0C4CF4E06C1CEA24
:1005700011541DBF1CEA135594EA0C0F95EA0C0F99
:1005800000F0DEF82C4481EA030621EA4C5123EA0C
:100590004C5350EA013518BF52EA033541F480113B
:1005A00043F4801338D0A0FB02CE4FF00005E1FBEE
:1005B00002E506F00042E0FB03E54FF00006E1FB38
:1005C00003569CF0000F18BF4EF0010EA4F1FF047B
:1005D000B6F5007F64F5407404D25FEA4E0E6D41BB
:1005E00046EB060642EAC62141EA55514FEAC520CC
:1005F00040EA5E504FEACE2EB4F1FD0C88BFBCF548
:10060000E06F1ED8BEF1004F08BF5FEA500E50F1F8
:10061000000041EB045170BD06F0004646EA0101BE
:1006200040EA020081EA0301B4EB5C04C2BFD4EBF0
:100630000C0541EA045170BD41F480114FF0000EE9
:10064000013C00F3AB8014F1360FDEBF002001F057
:10065000004170BDC4F10004203C35DA0C341BDCD1
:1006600004F11404C4F1200500FA05F320FA04F0A3
:1006700001FA05F240EA020001F0004221F00041D7
:1006800010EBD37021FA04F642EB06015EEA430E4A
:1006900008BF20EAD37070BDC4F10C04C4F120057A
:1006A00000FA04F320FA05F001FA04F240EA02002D
:1006B00001F0004110EBD37041F100015EEA430EFE
:1006C00008BF20EAD37070BDC4F1200500FA05F21E
:1006D0004EEA020E20FA04F301FA05F243EA02039D
:1006E00021FA04F001F0004121FA04F220EA0200AC
:1006F00000EBD3705EEA430E08BF20EAD37070BDF2
:1007000094F0000F0FD101F00046400041EB0101D1
:1007100011F4801F08BF013CF7D041EA060195F0B3
:10072000000F18BF704703F00046520043EB03036D
:1007300013F4801F08BF013DF7D043EA060370475A
:1007400094EA0C0F0CEA135518BF95EA0C0F0CD065
:1007500050EA410618BF52EA4306D1D181EA0301AB
:1007600001F000414FF0000070BD50EA410606BFA5
:100770001046194652EA430619D094EA0C0F02D1EA
:1007800050EA013613D195EA0C0F05D152EA03362F
:100790001CBF104619460AD181EA030101F000414D
:1007A00041F0FE4141F470014FF0000070BD41F096
:1007B000FE4141F4780170BD70B54FF0FF0C4CF470
:1007C000E06C1CEA11541DBF1CEA135594EA0C0F8F
:1007D00095EA0C0F00F0A7F8A4EB050481EA030EDC
:1007E00052EA03354FEA013100F088804FEA0333C3
:1007F0004FF0805545EA131343EA12634FEA022291
:1008000045EA111545EA10654FEA00260EF0004151
:100810009D4208BF964244F1FD0404F5407402D2A3
:100820005B084FEA3202B61A65EB03055B084FEA34
:1008300032024FF480104FF4002CB6EB020E75EB31
:10084000030E22BFB61A754640EA0C005B084FEA59
:100850003202B6EB020E75EB030E22BFB61A7546D6
:1008600040EA5C005B084FEA3202B6EB020E75EB21
:10087000030E22BFB61A754640EA9C005B084FEA99
:100880003202B6EB020E75EB030E22BFB61A7546A6
:1008900040EADC0055EA060E18D04FEA051545EA95
:1008A00016754FEA06164FEAC30343EA52734FEA3E
:1008B000C2025FEA1C1CC0D111F4801F0BD141EAB7
:1008C00000014FF000004FF0004CB6E711F4801F1C
:1008D00004BF01430020B4F1FD0C88BFBCF5E06FFC
:1008E0003FF6AFAEB5EB030C04BFB6EB020C5FEA0C
:1008F000500C50F1000041EB045170BD0EF0004E61
:100900004EEA113114EB5C04C2BFD4EB0C0541EA92
:10091000045170BD41F480114FF0000E013C90E68F
:1009200045EA060E8DE60CEA135594EA0C0F08BF53
:1009300095EA0C0F3FF43BAF94EA0C0F0AD150EA52
:1009400001347FF434AF95EA0C0F7FF425AF1046E5
:1009500019462CE795EA0C0F06D152EA03353FF40D
:10096000FDAE1046194622E750EA410618BF52EA8A
:1009700043067FF4C5AE50EA41047FF40DAF52EA5E
:1009800043057FF4EBAE12E74FF0FF3C06E000BFFB
:100990004FF0010C02E000BF4FF0010C4DF804CD08
:1009A0004FEA410C7FEA6C5C4FEA430C18BF7FEAC8
:1009B0006C5C1BD001B050EA410C0CBF52EA430CF6
:1009C00091EA030F02BF90EA020F0020704710F176
:1009D000000F91EA030F58BF994208BF90422CBF05
:1009E000D8176FEAE37040F0010070474FEA410CFE
:1009F0007FEA6C5C02D150EA013C07D14FEA430C1C
:100A00007FEA6C5CD6D152EA033CD3D05DF8040B8C
:100A1000704700BF8446104662468C4619466346BE
:100A200000E000BF01B5FFF7B7FF002848BF10F195
:100A3000000F01BD4DF808EDFFF7F4FF0CBF0120DA
:100A400000205DF808FB00BF4DF808EDFFF7EAFF56
:100A500034BF012000205DF808FB00BF4DF808ED11
:100A6000FFF7E0FF94BF012000205DF808FB00BF06
:100A70004DF808EDFFF7CEFF94BF012000205DF890
:100A800008FB00BF4DF808EDFFF7C4FF34BF01209D
:100A900000205DF808FB00BF4FEA410C7FEA6C5C68
:100AA00002D150EA013C0AD14FEA430C7FEA6C5C68
:100AB00002D152EA033C02D14FF0000070474FF0E0
:100AC000010070474FEA410212F5001215D211D50C
:100AD0006FF47873B3EB625212D94FEAC12343F03B
:100AE000004343EA505311F0004F23FA02F018BFBD
:100AF000404270474FF00000704750EA013005D186
:100B000011F0004008BF6FF0004070474FF0000048
:100B1000704700BF4A0011D212F5001211D20DD554
:100B20006FF47873B3EB62520ED44FEAC12343F0F3
:100B3000004343EA505323FA02F070474FF000009D
:100B4000704750EA013002D14FF0FF3070474FF04C
:100B5000000070474FEA4102B2F1E04324BFB3F511
:100B6000001CDCF1FE5C0DD901F0004C4FEAC00224
:100B70004CEA5070B2F1004F40EB830008BF20F008
:100B80000100704711F0804F21D113F13872BCBFC2
:100B900001F00040704741F480114FEA5252C2F117
:100BA0001802C2F1200C10FA0CF320FA02F018BF60
:100BB00040F001004FEAC1234FEAD32303FA0CFCB3
:100BC00040EA0C0023FA02F34FEA4303CCE77FEA42
:100BD000625307D150EA01331EBF4FF0FE4040F48C
:100BE0004000704701F0004040F0FE4040F400003B
:100BF000704700BF80F0004002E000BF81F000417C
:100C000042001FBF5FEA410392EA030F7FEA226CB2
:100C10007FEA236C6AD04FEA1262D2EB1363C1BF42
:100C2000D218414048404140B8BF5B42192B88BFB1
:100C3000704710F0004F40F4000020F07F4018BFD4
:100C4000404211F0004F41F4000121F07F4118BFF4
:100C5000494292EA030F3FD0A2F1010241FA03FC9C
:100C600010EB0C00C3F1200301FA03F100F0004384
:100C700002D5494260EB4000B0F5000F13D3B0F14C
:100C8000807F06D340084FEA310102F10102FE2ABB
:100C900051D2B1F1004F40EBC25008BF20F001002B
:100CA00040EA03007047490040EB000010F4000FD9
:100CB000A2F10102EDD1B0FA80FCACF1080CB2EB6C
:100CC0000C0200FA0CF0AABF00EBC25052421843CB
:100CD000BCBFD0401843704792F0000F81F4000170
:100CE00006BF80F400000132013BB5E74FEA410343
:100CF0007FEA226C18BF7FEA236C21D092EA030FAF
:100D000004D092F0000F08BF0846704790EA010F28
:100D10001CBF0020704712F07F4F04D1400028BF55
:100D200040F00040704712F100723CBF00F5000037
:100D3000704700F0004343F0FE4040F4000070476D
:100D40007FEA226216BF08467FEA23630146420219
:100D500006BF5FEA412390EA010F40F4800070472C
:100D60004FF0000304E000BF10F0004348BF4042D2
:100D70005FEA000C08BF704743F0964301464FF00E
:100D800000001CE050EA010208BF70474FF000036A
:100D90000AE000BF50EA010208BF704711F00043AB
:100DA00002D5404261EB41015FEA010C02BF84467B
:100DB0000146002043F0B64308BFA3F18053A3F5DA
:100DC0000003BCFA8CF2083AA3EBC25310DB01FA21
:100DD00002FC634400FA02FCC2F12002BCF1004FA5
:100DE00020FA02F243EB020008BF20F00100704736
:100DF00002F1200201FA02FCC2F1200250EA4C008A
:100E000021FA02F243EB020008BF20EADC707047CF
:100E10004FF0FF0C1CEAD0521EBF1CEAD15392EADD
:100E20000C0F93EA0C0F6FD01A4480EA010C4002B9
:100E300018BF5FEA41211ED04FF0006343EA501013
:100E400043EA5111A0FB01310CF00040B1F5000F55
:100E50003EBF490041EAD3715B0040EA010062F104
:100E60007F02FD2A1DD8B3F1004F40EBC25008BFEE
:100E700020F00100704790F0000F0CF0004C08BF0C
:100E800049024CEA502040EA51207F3AC2BFD2F1D9
:100E9000FF0340EAC250704740F400004FF00003E7
:100EA000013A5DDC12F1190FDCBF00F00040704721
:100EB000C2F10002410021FA02F1C2F1200200FA5F
:100EC00002FC5FEA310040F1000053EA4C0308BF26
:100ED00020EADC70704792F0000F00F0004C02BF77
:100EE000400010F4000F013AF9D040EA0C0093F0F2
:100EF000000F01F0004C02BF490011F4000F013B4C
:100F0000F9D041EA0C018FE70CEAD15392EA0C0FB9
:100F100018BF93EA0C0F0AD030F0004C18BF31F024
:100F2000004CD8D180EA010000F00040704790F0FA
:100F3000000F17BF90F0004F084691F0000F91F09E
:100F4000004F14D092EA0C0F01D142020FD193EA64
:100F50000C0F03D14B0218BF084608D180EA0100EC
:100F600000F0004040F0FE4040F40000704740F0C8
:100F7000FE4040F4400070474FF0FF0C1CEAD05296
:100F80001EBF1CEAD15392EA0C0F93EA0C0F69D0F2
:100F9000A2EB030280EA010C49024FEA402037D05D
:100FA0004FF0805343EA111143EA10130CF0004054
:100FB0008B4238BF5B0042F17D024FF4000C8B4244
:100FC00024BF5B1A40EA0C00B3EB510F24BFA3EB24
:100FD000510340EA5C00B3EB910F24BFA3EB9103F4
:100FE00040EA9C00B3EBD10F24BFA3EBD10340EA4E
:100FF000DC001B0118BF5FEA1C1CE0D1FD2A3FF694
:1010000050AF8B4240EBC25008BF20F00100704748
:101010000CF0004C4CEA50207F32C2BFD2F1FF03EB
:1010200040EAC250704740F400004FF00003013A1C
:1010300037E792F0000F00F0004C02BF400010F4C0
:10104000000F013AF9D040EA0C0093F0000F01F0D4
:10105000004C02BF490011F4000F013BF9D041EAF6
:101060000C0195E70CEAD15392EA0C0F08D1420229
:101070007FF47DAF93EA0C0F7FF470AF084676E7FC
:1010800093EA0C0F04D14B023FF44CAF08466EE7D5
:1010900030F0004C18BF31F0004CCAD130F00042A3
:1010A0007FF45CAF31F000437FF43CAF5FE700BFFB
:1010B0004FF0FF3C06E000BF4FF0010C02E000BF24
:1010C0004FF0010C4DF804CD4FEA40024FEA4103C6
:1010D0007FEA226C18BF7FEA236C11D001B052EA7C
:1010E000530C18BF90EA010F58BFB2EB030088BF42
:1010F000C81738BF6FEAE17018BF40F001007047B1
:101100007FEA226C02D15FEA402C05D17FEA236C92
:10111000E4D15FEA412CE1D05DF8040B704700BFD9
:10112000844608466146FFE70FB5FFF7C9FF002870
:1011300048BF10F1000F0FBD4DF808EDFFF7F4FFA9
:101140000CBF012000205DF808FB00BF4DF808ED42
:10115000FFF7EAFF34BF012000205DF808FB00BF65
:101160004DF808EDFFF7E0FF94BF012000205DF887
:1011700008FB00BF4DF808EDFFF7D2FF94BF012038
:1011800000205DF808FB00BF4DF808EDFFF7C8FF31
:1011900034BF012000205DF808FB00BF4FEA400289
:1011A0004FEA41037FEA226C02D15FEA402C08D16A
:1011B0007FEA236C02D15FEA412C02D14FF000009C
:1011C00070474FF0010070474FEA4002B2F1FE4F06
:1011D0000FD34FF09E03B3EB12620DD94FEA0023F9
:1011E00043F0004310F0004F23FA02F018BF4042D2
:1011F00070474FF00000704712F1610F01D14202B9
:1012000005D110F0004008BF6FF0004070474FF06C
:101210000000704742000ED2B2F1FE4F0BD34FF0E8
:101220009E03B3EB126209D44FEA002343F000435C
:1012300023FA02F070474FF00000704712F1610F7F
:1012400001D1420202D14FF0FF3070474FF0000051
:10125000704700BF53B94AB9002908BF00281CBF16
:101260004FF0FF314FF0FF3000F07AB9ADF1080CCC
:101270006DE904CE00F006F8DDF804E0DDE90223B4
:1012800004B070472DE9F0478C460E460446089D91
:10129000002B50D18A4217466CD9B2FA82FEBEF1B9
:1012A000000F0BD0CEF1200C01FA0EF620FA0CFC48
:1012B00002FA0EF74CEA060C00FA0EF43A0CBCFBEC
:1012C000F2F9BBB202FB19CC09FB03FA4FEA14484E
:1012D00048EA0C46B2450AD9F61909F1FF3180F007
:1012E0002581B24540F22281A9F102093E44A6EBD4
:1012F0000A06B6FBF2F002FB106600FB03F3A4B291
:1013000044EA0644A34209D9E41900F1FF3280F00F
:101310000B81A34240F2088102383C440021E41AC8
:1013200040EA0940002D62D0002324FA0EF42C601C
:101330006B60BDE8F0878B4207D9002D55D00021A6
:1013400085E841000846BDE8F087B3FA83F100293B
:1013500040F08F80B34202D3824200F2FC80841AB4
:1013600066EB03060120B446002D40D085E810103E
:10137000BDE8F08712B90127B7FBF2F7B7FA87FE8D
:10138000BEF1000F35D10121F61B4FEA174C1FFAB1
:1013900087F8B6FBFCF20CFB126608FB02F0230C8C
:1013A00043EA0646B04207D9F61902F1FF3302D2EA
:1013B000B04200F2D2801A46361AB6FBFCF00CFBA3
:1013C000106608FB00F8A3B243EA0644A04507D91B
:1013D000E41900F1FF3302D2A04500F2B9801846AB
:1013E000A4EB080440EA02409CE729462846BDE8F1
:1013F000F08707FA0EF7CEF1200326FA03F24FEA40
:10140000174CB2FBFCF11FFA87F80CFB112206FA0D
:101410000EF620FA03F301FB08F933431E0C46EAEB
:101420000246B14500FA0EF409D9F61901F1FF326E
:1014300080F08C80B14540F2898002393E44A6EBB1
:101440000906B6FBFCF00CFB106200FB08F99EB22B
:1014500046EA0246B14507D9F61900F1FF3371D2C9
:10146000B1456FD902383E44A6EB090640EA014176
:101470008FE7C1F1200722FA07F88B4048EA0303FF
:1014800026FA07F44FEA134EB4FBFEF91FFA83FC69
:101490000EFB19448E4020FA07F809FB0CFA48EAC3
:1014A00006084FEA184646EA0444A24502FA01F249
:1014B00000FA01F608D9E41809F1FF3044D2A24538
:1014C00042D9A9F102091C44A4EB0A04B4FBFEF0C2
:1014D0000EFB104400FB0CFC1FFA88F848EA044499
:1014E000A44507D9E41800F1FF3E29D2A44527D925
:1014F00002381C4440EA0940A0FB0289A4EB0C0C12
:10150000CC45C246CE4615D312D055B1B6EB0A0330
:101510006CEB0E0606FA07F7CB401F43CE402F6058
:101520006E600021BDE8F0871046F7E68946DEE6EA
:101530004645EAD2B8EB020A69EB030E0138E4E74C
:101540007046D7E718468FE78146BDE7114676E734
:1015500002383C4444E7084606E7023A3E442BE79B
:10156000704700BF034B0360034B0B608023136085
:10157000704700BF080400200802002008B500687A
:10158000FFF748FE014B83F8A90208BD384A002046
:1015900008B50068FFF73EFE014B83F8A80208BDBE
:1015A000384A00202DE9F04705460E4600244FF04A
:1015B00001090D4FDFF83480394656F824005FFAF0
:1015C00084FAFFF7E1FD40B155F82410504606F0CB
:1015D0008DFB04EB080383F823920134062CEBD136
:1015E000BDE8F04706F08ABBACC52737384A002073
:1015F0000A4BF7B500F1140400F1180700691D68E3
:101600000E46FFF707FEC0B2019000943B4622460B
:101610003146E86812F02CF803B0F0BD1800002045
:1016200008B50068FFF7F6FD064BC0B2012883F845
:10163000AA0201D103F0C5FEBDE80840012003F075
:10164000C1BE00BF384A00207FB50068FFF7E2FD49
:101650000B4BC0B2012883F8AB0204D103F0B1FEFA
:1016600007B05DF804FB012003F0ACFE1822002156
:10167000684612F0EDF869466846FFF7D1FFEFE7DC
:10168000384A00201FB50146104B02AC18689A88F2
:101690009B790290A3710E4BA28003EB41110522AE
:1016A000684612F09EFF9DF80010204612F05DFF84
:1016B00028B99DF80310204612F057FF18B1001BFF
:1016C00040B204B010BD4FF0FF30FAE788A7010820
:1016D0006CB3010808B5FFF7D5FF022805DC01301F
:1016E0004FF0FF3018BF002008BD012008BD0000EA
:1016F0002DE9F041044686B000890F46FFF7EAFF66
:10170000D8B90F4B93F8A2220E4B53F822200E4B60
:1017100020691E680492FEF7D1FECDE9020104F1B2
:101720001405009504F1180843462A463946F06826
:1017300011F09EFF06B0BDE8F081044AE7E700BF64
:10174000384A002038B30108180000204CB30108C3
:101750002DE9F041044686B000898846FFF7BAFFBC
:10176000E0B90F4B93F8A2220E4B53F822300E4AE9
:10177000206917680493FEF7A1FE04F1140504F133
:1017800018068DE86000CDE9020133462A4641463D
:10179000F86811F06DFF06B0BDE8F081034BE6E795
:1017A000384A002038B30108180000204CB3010863
:1017B0002DE9F0410546154B86B0186814469A8805
:1017C0009B79049028890F46ADF814208DF81630C7
:1017D000FFF758FFC0B2032828BF022406AB184405
:1017E0000B4B10F8088C1E680A4B286953F82430FC
:1017F0000293FEF763FECDE9000142463946F068E8
:1018000011F036FF06B0BDE8F08100BF8FA70108D8
:101810001800002038B30108134B93F81E226AB950
:1018200093F81D2283F81C2293F81D22062A04BF78
:101830000B2283F81C2293F81C027047022A01D164
:101840000722EFE7032A01D10922EBE7042A01D19D
:101850000A22E7E793F81F22012A01D10522E1E7D6
:10186000022AE1D10622DDE7384A0020014B93F835
:101870001D027047384A0020014B93F8220270473E
:10188000384A0020074B012883F81F0208D002D3F2
:10189000022805D0704703F51572C3F8502270472F
:1018A000014AFAE7384A002090750020014B83F87E
:1018B00022027047384A00200079704790F84F00A4
:1018C000704790F84E00704790F85100704790F8BC
:1018D0005200704790F84C00704705F04FBB006C09
:1018E00070470171704780F8581070474164704725
:1018F000024BC3F85402024801F060BF384A00208E
:10190000BBFE010808B50D4B014693F8A422012A3D
:1019100012D0062093F8A32200FB021203EB8202EE
:10192000506A93F81F23012A07D103EB8103D3F8F0
:10193000CC12FFF765F908BD002008BD384A002029
:1019400038B5002400F12005E0B2FFF7DBFF0134D9
:10195000062C45F8040BF7D138BD000080F8501074
:101960000148FFF7EDBF00BF8C4C00202DE9F0418E
:10197000144D044686B095F81F03FFF7F5F980462D
:101980002068FFF747FC18270024C0B247432B19F3
:10199000D3F8CC124046FFF73BFA3E192E440146DD
:1019A000706AFFF72DF94DF804000434182CEED1BD
:1019B000684605F0C3FA0448FFF7C2FF06B0BDE869
:1019C000F08100BF384A00208C4C00200346054AB5
:1019D0000846934201D005F0A9BA03EB8103186EC3
:1019E000704700BF8C4C002038B50546104B0C46A4
:1019F0009D42084614D1FFF785FF05EB840401469C
:101A0000206EFFF7FBF895F84E3043B9FEF756FD10
:101A100005A3D3E90023FEF7CFFEFFF79BF838BDFF
:101A200005F09CFAEFE700BF6666666666663940B9
:101A30008C4C002070B50B4E06F52D7406F517750D
:101A40000FCD0FC495E8030096F8A03284E8030098
:101A500033B996F85832012B04BF0023C6F89432EC
:101A600070BD00BF384A00202DE9F0471C4D8AB0F8
:101A700095F81E3283BB95F84632012B2CD108F025
:101A800002F948BB3626174FDFF85C80DFF85C9020
:101A900085F8460218244FF0000A04FB0654A4F50A
:101AA0009B6417F80A303246414607A812F02AFD17
:101AB00007A9484601F0E4FC54F8043FADF80C00D7
:101AC0000AF1010A01A8059301F064FBBAF1060FBF
:101AD000E7D101363C2EDDD100200AB0BDE8F08709
:101AE000384A002088A70108A4A701089AFE010827
:101AF0002DE9F04F05468846074600244FF0380B85
:101B0000534E85B096F8A63296F8A2A2019306F538
:101B10001779E2B24F4958F824000292FFF716FBFA
:101B200020BB0BFB046393F8CC30013B012B1DD889
:101B3000019B002B54D1029A1046FFF7E3FEFEF7FB
:101B4000BDFCCDE902013868BAF1000F4BD1FEF7B8
:101B5000B5FC3BA3D3E90023FEF704FDDDE9022336
:101B6000FEF74EFBFEF7F6FFC9F800000134032C28
:101B700009F1040907F10407CBD196F8A232344FDA
:101B8000029396F8A632DFF8CC90019308F108088A
:101B900007F51A760C35494658F8040FFFF7D6FAC0
:101BA00088B997F8743173B1013B012B1ED8D5F871
:101BB00000A0019B002B3FD12046FFF7A3FE51461A
:101BC000FFF71EF830600134E4B2062C07F1380745
:101BD00006F1040605F10405DDD105B0BDE8F08F7E
:101BE000D9F80000ABE7FEF769FCB7E7029B28686D
:101BF000FBB9FEF763FC12A3D3E90023FEF7B2FCA6
:101C00000022154BFEF7AEFC8246D7F898018B46B2
:101C1000FEF754FC0CA3D3E90023FEF7A3FC024615
:101C20000B4650465946FEF7C7FDFEF793FF824626
:101C3000BFE7FEF743FCE3E751463068C0E700BF6B
:101C40006666666666663940182D4454FB21194065
:101C5000384A0020ACC52737008076402DE9F84F80
:101C60001F4D81462B7B012B33D12E460024DFF8FC
:101C700074B0DFF874A0631993F82332012B23D1D9
:101C8000D6F8DC70D6F8D88038464146FEF7B6FF65
:101C9000594620F00040FFF759FAA8B95146384696
:101CA000FFF772FA28B159F824103846FFF76CFA9A
:101CB00090B951464046FFF767FA28B159F8241009
:101CC0004046FFF743FA38B90134062C06F13806CE
:101CD000D1D10020BDE8F88FDC20BDE8F88F00BF2F
:101CE000384A0020ACC52737002474C941F2EF23DD
:101CF000064A1380A2F8EC33A2F8B032A2F82A33D5
:101D0000034A1380A2F8C830704700BF384A002049
:101D10004059002041F2EF210E4B1A888A4216D119
:101D2000B3F8EC13914212D1B3F8B0228A420ED12B
:101D3000B3F82A1391420AD1074A13888B4206D17D
:101D4000B2F8C800984214BF5F20002070475F209F
:101D5000704700BF384A002040590020054B93F8D7
:101D60001E2222B9032283F81D220020704705227B
:101D7000F9E700BF384A002010B5044606F044FFDA
:101D8000002006F097FD204606F0BEF90622024B21
:101D9000204683F81D2210BD384A0020024B83F8EC
:101DA000A1020020704700BF384A0020024B83F890
:101DB000A2020020704700BF384A0020024B83F87F
:101DC000A6020020704700BF384A00200000000033
:101DD0002DE9F84F431E052B0F46914627D81826AC
:101DE00000244FF0010B164D464395F8A282DFF810
:101DF00054A0514659F80400FFF7C6F988B1385984
:101E0000B8F1000F08D1FEF759FB0BA3D3E900236B
:101E1000FEF7A8FBFEF79EFEA3192B44586285F837
:101E200046B20434182CE4D10020BDE8F88F6E20AF
:101E3000BDE8F88FAFF30080666666666666394077
:101E4000384A0020ACC527377FB50A4B83F8A30278
:101E5000FEF786FF002300906A4669460648019314
:101E6000029303930493059305F0EEFF002007B05F
:101E70005DF804FB384A00206D19000838B560246D
:101E8000204D5C220021284611F0E2FC2246002170
:101E900005F1D80011F0DCFC22460021A5F51574EF
:101EA00005F59C7011F0D4FCFFF720FFA37F207F85
:101EB00084F8A232C4F85052FFF7C6FF0422637FB1
:101EC00084F8582284F8A132E37F002284F8A532F6
:101ED00094F8203084F8472284F8A632012384F84D
:101EE000482284F8A03284F8203384F8492284F808
:101EF0001D3284F81C3206F03FFCBDE8384003F088
:101F0000C3BE00BF8C4C002038B50A4B044603EB1F
:101F1000800213460D46C3F85C12C2F8B41205F0F5
:101F2000DDFE2946204605F0E1FEBDE8384005F01B
:101F3000E5BE00BF384A00202DE9F04707460E46AF
:101F400000241D4DDFF8788086B0A5F5177941464D
:101F500056F824005FFA84FAFFF716F9A8B199F849
:101F6000A23203BB57F82400FEF7A8FA10A3D3E966
:101F70000023FEF7F7FAFEF7EDFD014650464DF857
:101F80002410A965296005F0A9FE0134062C05F18D
:101F90000405DCD132466946084805F055FF0020AB
:101FA00006B0BDE8F08757F82410E7E7AFF30080EC
:101FB0006666666666663940944C0020A515000882
:101FC000ACC527370000000001232DE9F04F18268B
:101FD00080462D4CDFF8B8B084F81F3394F8A33254
:101FE00094F8A2A25E4389B0A1F1040904F5337507
:101FF00001F11407A6F52A76594659F8040FFFF7A0
:10200000C3F8E8B1A95955F8180CFEF7F7FDFEF72B
:1020100055FACDE90001D8F80000BAF1000F29D136
:10202000FEF74CFA16A3D3E90023FEF79BFA02460B
:102030000B46DDE90001FEF7E1F8FEF78BFD2860B5
:10204000B94508F1040805F10405D5D194F8A302B7
:10205000FEF786FE002302AA029011460B48039366
:10206000049305930693079305F0EEFE002009B054
:10207000BDE8F08FFEF722FAD9E700BFAFF300808A
:102080006666666666663940384A00206D19000843
:10209000ACC5273730B500240025114B87B083F835
:1020A0001F53C3F8CC42C3F8D042C3F8D442C3F89C
:1020B000D842C3F8DC42C3F8E04293F8A302FEF72B
:1020C0004FFE6A46009069460648019402940394C4
:1020D0000494059405F0B8FE284607B030BD00BF53
:1020E000384A00206D19000810B500240B4B86B04B
:1020F00083F81F4393F8A302FEF732FE00230090FB
:102100006A46694606480193029303930493059334
:1021100005F09AFE204606B010BD00BF384A0020E8
:102120006D1900087FB501220B4B83F81F2393F82C
:10213000A302FEF715FE002300906A466946074891
:102140000193029303930493059305F07DFE002011
:1021500007B05DF804FB00BF384A00206D19000885
:102160002DE9F74F00242646164FDFF864B0164DD0
:10217000DFF86090E0B2FFF7C5FB014657F8040FA7
:10218000FEF73CFDFEF79AF914F80BA006EB0508E4
:10219000CDE9000152464946404612F0B3F90134F8
:1021A000062C0644E6D10A23354405F8013C074BCA
:1021B00005491B68D86811F05BFA002003B0BDE840
:1021C000F08F00BF904C0020EC5800201800002039
:1021D0008FA70108ABA70108F0B5104C87B0E068E5
:1021E000FEF76CF90E4B064660691D680F46FEF758
:1021F00065F9CDE904012069FEF760F9CDE9020136
:10220000A068FEF75BF9CDE9000132463B4605497F
:10221000E86811F02DFA002007B0F0BD005500204D
:1022200018000020E6AD01080122054B83F82222A8
:10223000044B9B78002B0CBF02200020704700BF8E
:10224000384A0020B854002030B5064C04F53975E2
:1022500004F52D740FCC0FC594E8030085E8030046
:10226000002030BD384A002030B5064C04F53F75DB
:1022700004F52D740FCC0FC594E8030085E8030026
:10228000002030BD384A002038B5114C014694F882
:10229000A03225463BB94FF07E50FEF76DFEC4F8E4
:1022A0009402002038BD94F8A2324BB9FEF706F92B
:1022B00005A3D3E90023FEF755F9FEF74BFC0146D1
:1022C000C5F89412EDE700BF66666666666639403B
:1022D000384A0020024B83F8A0020020704700BF5C
:1022E000384A0020024B83F8A5020020704700BF47
:1022F000384A002008B5034BC3F89C0205F0CAFD1C
:10230000002008BD384A00207FB5FEF729FD0023D4
:1023100000906A466946064801930293039304932A
:10232000059305F091FD002007B05DF804FB00BFA8
:102330007D1500087FB50A4B93F8A902FEF710FD42
:10234000002300906A46694606480193029303936E
:102350000493059305F078FD002007B05DF804FBB9
:10236000384A0020911500087FB5FEF7F9FC0023DC
:1023700000906A46694606480193029303930493CA
:10238000059305F061FD002007B05DF804FB00BF78
:10239000211600087FB5FEF7E3FC002300906A4693
:1023A000694606480193029303930493059305F04D
:1023B0004BFD002007B05DF804FB00BF4916000884
:1023C000006838B5FEF726FF00231A4C04F5157295
:1023D000C4F8502294F81E2284F81D02012A08BF76
:1023E00084F81E3284F81F3284F8203284F849328F
:1023F00004F08EFD94F81D52042D16D1FFF74AFE0D
:10240000207FFFF721FD637F002084F8A13294F83C
:10241000203084F8A63206F04DFA0020FFF7BAFF0C
:10242000012384F8585284F8A0320120BDE83840D6
:1024300006F000B8384A0020044B83F81C0383F8E8
:102440001D0383F828030020704700BF384A00208E
:1024500038B50C4C0C49D4F8D803FEF795FE254648
:1024600060B1D4F87803084920F00040FEF76EFE12
:1024700020B1002384F81C33002038BD012385F8E7
:102480001C33F9E7384A0020ACC52737044BD3F892
:10249000782383F81C03C3F814230020704700BF7F
:1024A000384A002038B50C4C0C49D4F8D803FEF754
:1024B0006BFE254660B1D4F87803084920F000404F
:1024C000FEF744FE20B1002384F81D33002038BD00
:1024D000012385F81D33F9E7384A0020ACC52737BA
:1024E000044BD3F8782383F81D03C3F81823002086
:1024F000704700BF384A002038B50C4C0C49D4F85E
:10250000D803FEF741FE254660B1D4F878030849A8
:1025100020F00040FEF71AFE20B1002384F8283393
:10252000002038BD012385F82833F9E7384A002018
:10253000ACC52737044BD3F8782383F82803C3F8B6
:1025400024230020704700BF384A0020014601487C
:1025500001F056B9B5A701080122024B83F84722C2
:10256000704700BF384A00200122024B83F84822FE
:10257000704700BF384A00200122024B83F84922ED
:10258000704700BF384A002030B587B004F0F6FC31
:10259000012821D005F020FC002006F00FF80024CF
:1025A00006F08AF8E5B2284604F0C0FC0134014682
:1025B0002846FFF7A9FC062CF4D1084B6846009387
:1025C0000023694601930293039304930593FFF755
:1025D000F7FE002007B030BD6A20FBE70000404056
:1025E0000522064B83F81D2293F81E2222B90122F0
:1025F00083F81E2205F0D6BF704700BF384A00207E
:1026000038B500230F4C84F85832FFF771FA04F5FF
:102610001770FFF723FB054630B105F075FD022367
:1026200084F81D32284638BD04F51570FFF788F987
:10263000FFF7D6FF04F5157004F0AEFCFFF7FAF9CA
:10264000F0E700BF384A0020012330B504460D46AC
:102650000E4887B080F8A43200F51570FFF770F9C6
:1026600029462046FFF7CCFF05F06EFB0028FBD083
:102670006C46074D0FCD0FC495E8030084E80300B6
:1026800069460448FFF7BCFF07B030BD384A002058
:1026900038A601081C4D0020012330B504460D4624
:1026A0000E4887B080F8A43200F51570FFF748F99E
:1026B00029462046FFF7A4FF05F046FB0028FBD083
:1026C0006C46074D0FCD0FC495E8030084E8030066
:1026D00069460448FFF794FF07B030BD384A002030
:1026E00038A60108344D002070B5184B044693F805
:1026F000A0220E461D463AB1D3F89402144920F0A8
:102700000040FEF723FDF0B901232046314685F84D
:102710005832FFF7EDF90F48FFF7A0FA044630B141
:1027200005F0F2FC022385F81D32204670BD0A48F0
:10273000FFF706F9FFF754FF074804F02DFC0446A5
:10274000FFF778F9F1E78E24EFE700BF384A002061
:10275000ACC52737944C00208C4C002010B5204C81
:1027600094F84732012B11D194F81F32012B0AD172
:1027700094F820223AB9022284F81F22194A84F8D8
:102780002032C4F85022002384F8473294F84832AB
:10279000012B0FD194F81F322BB1022B0AD194F8E0
:1027A0002032042B06D104F0E9FB18B984F8480262
:1027B000FFF7EAFEB4F84832B3F5807F0ED194F803
:1027C0002032013B022B09D9002384F8493205232A
:1027D00084F82032FFF704FF04F0BCFF002010BD96
:1027E000384A0020907500207FB5094B93F81E32BF
:1027F0005BB1084B6946009300236846019302933E
:10280000039304930593FFF7DBFD07B05DF804FB2A
:10281000384A0020000040407FB5084B6A460093CC
:10282000002369460648019302930393049305939A
:1028300005F00AFB07B05DF804FB00BF0000404054
:10284000C1230008FFF7E8BF7FB54FF08143009335
:1028500000236A4669460548019302930393049353
:10286000059305F0F1FA07B05DF804FBC1230008F9
:1028700003460A4A82B010689188927900908DF8D8
:102880000620DAB2062A8CBF202002AAADF8041076
:102890009CBF9B1813F8080C02B070478FA7010863
:1028A00070B5044610460E461546FEF759FA022347
:1028B000E372206156F825102046BDE8704000F014
:1028C0005DBF000010B50446FEF7A6FF03490246AF
:1028D0002046BDE81040FFF7E3BF00BFB4B20108D7
:1028E000024B034993F81D22FFF7DABF384A002054
:1028F0001CB20108024B034993F81E22FFF7D0BF18
:10290000384A0020E8AE0108024B034993F81F2221
:10291000FFF7C6BF384A002080B20108024B0349C6
:1029200093F82022FFF7BCBF384A0020BCB1010851
:10293000024B034993F82122FFF7B2BF384A002027
:10294000F8B10108034B0449D3F8503293F84E20F4
:10295000FFF7A6BF384A002030B30108034B0449F3
:10296000D3F8503293F84F20FFF79ABF384A00202F
:10297000CCAE0108034B0449D3F850321A79FFF763
:102980008FBF00BF384A00206CB20108034B0449D6
:10299000D3F8503293F84D20FFF782BF384A002019
:1029A000A8B20108034B0449D3F8503293F85120E0
:1029B000FFF776BF384A00209CB20108034B044958
:1029C000D3F8503293F85220FFF76ABF384A0020FC
:1029D0001CAF0108034B0449D3F8503293F84C2044
:1029E000FFF75EBF384A002024AF010810B5064B40
:1029F0000446D3F8503293F85400FEF7B1F902239D
:102A0000E3722061002010BD384A0020054B10B54C
:102A10000446D3F85402FEF7A3F90223E3722061BF
:102A2000002010BD384A0020064B10B5D3F85032B4
:102A300004461868FEF794F90223E372206100202F
:102A400010BD00BF384A002010B5154B044693F85E
:102A50001F325BB9002303612289124B002003EB74
:102A60004213DB7A23730423E37210BD04F058FA97
:102A70000D4B206193F89231002BEDD1FDF71EFD37
:102A800005A3D3E90023FDF76DFDFEF763F8206190
:102A9000E2E700BFAFF300800A8542A15028A43FBF
:102AA000384A002068B301084C7400200000000080
:102AB00010B50446104BD3F85032186C206193F8CF
:102AC0004E304BB9FDF7FAFC09A3D3E90023FDF71B
:102AD00049FDFEF73FF820612289084B002003EBF7
:102AE0004213DB7A23730423E37210BDAFF300803B
:102AF0000A8542A15028A43F384A002068B3010843
:102B000038B50B4B04460089D3F85052FEF7BAFD96
:102B1000C1B22846FEF768FF2289064B206103EB0D
:102B20004213DB7A002023730423E37238BD00BF15
:102B3000384A002068B3010838B50B4B04460089B9
:102B4000D3F85052FEF79EFDC1B22846FEF73EFF75
:102B50002289064B206103EB4213DB7A00202373AA
:102B60000423E37238BD00BF384A002068B301086F
:102B700038B50B4B04460089D3F85052FEF782FD5E
:102B8000C0B2083055F8203022892361054B00205F
:102B900003EB4213DB7A23730423E37238BD00BFD7
:102BA000384A002068B3010810B5044600F07EFBE7
:102BB0002069FEF72FFB0349C2B22046BDE8104052
:102BC000FFF76EBE90AE010810B504460089FEF70F
:102BD00081FD50B94FF080412069FEF7D5FA30B938
:102BE000204600F0A7FB002010BD0249F4E76D204D
:102BF00010BD00BF000040403823034A03FB002003
:102C0000D0F8E000704700BF384A002010B53824E3
:102C10000B46084A04FB00241846C4F8E010064995
:102C2000FEF7F6F801464FF07E50FEF7A5F9C4F81E
:102C3000E80010BD384A002000247449000000005C
:102C40002DE9F74F0546884600244FF0000ADFF8CB
:102C50009C90DFF89CB0E3B2494658F824000193F9
:102C6000FEF792FA38B3204B55F8240093F8A232BD
:102C700043BBFDF723FC16A3D3E90023FDF772FC49
:102C800015A3D3E90023FDF76DFC15A3D3E90023B9
:102C9000FDF792FD52465B4606460F46FDF7D4FE11
:102CA00008B156465F4639463046FDF753FF0146A8
:102CB0000198FFF7ABFF0134062CCCD1002003B004
:102CC000BDE8F08FFDF7FAFBDAE700BFAFF3008055
:102CD000666666666666394000000000005E0A416E
:102CE0000000000080842E41384A0020ACC5273700
:102CF0000000F03F38B5056904460B492846FEF749
:102D000043FA20B108492846FEF736F920612046EB
:102D100000F0CAFD2089FEF7B5FC2169C0B2FFF7BB
:102D200075FF002038BD00BF0024744938B505691F
:102D3000044607492846FEF727FA20B104492846E9
:102D4000FEF71AF92061204600F0AEFD002038BDE4
:102D5000002474490122024B002083F84822704766
:102D6000384A002008B504490069FEF70DFA08B199
:102D700001F008FA002008BDACC52737014BD3F895
:102D80004C027047384A002008B500F033FB0020A1
:102D900001F058FB002008BD08B500F02BFB012016
:102DA00001F050FB002008BD08B500F023FB022015
:102DB00001F048FB002008BD08B500F01BFB032014
:102DC00001F040FB002008BD054B0649D3F8503206
:102DD00093F84E20044B53F8222006F0D5BD00BFD7
:102DE000384A0020CFAD010838B30108054B064929
:102DF000D3F8503293F84E20044B53F8222006F0BB
:102E0000C3BD00BF384A0020DFAA010838B301085B
:102E1000014906F08BBD00BF6EAC0108014906F008
:102E200061BD00BF84AD0108014906F05BBD00BF74
:102E3000A1AC0108014906F055BD00BFADAA0108CB
:102E4000014906F04FBD00BFD3AC0108014906F0AF
:102E500049BD00BF18AC0108014906F043BD00BFE1
:102E600031AC0108014906F03DBD00BFB6AD010817
:102E7000014906F037BD00BF54AA0108014906F018
:102E800031BD00BFBAAC0108014906F02BBD00BF3F
:102E900038AD0108014906F025BD00BF1FAD01088E
:102EA000014906F01FBD00BFC6AA0108014906F08E
:102EB00019BD00BFF7AA0108014906F037BD00BFE0
:102EC0009DAD010810B504461B4811F013FB2046C8
:102ED000FFF77AFF2046FFF789FF2046FFF798FFAC
:102EE0002046FFF79BFF2046FFF79EFF2046FFF797
:102EF000A1FF2046FFF7A4FF2046FFF7A7FF2046CB
:102F0000FFF7AAFF2046FFF7ADFF2046FFF7B0FF0F
:102F10002046FFF7B3FF2046FFF7B6FF2046FFF736
:102F2000B9FF2046FFF7BCFF2046FFF7BFFF204652
:102F3000FFF7C2FF002010BD96A70108014906F067
:102F4000F5BC00BFB4AB0108014906F0EFBC00BFFF
:102F5000E7AB0108014906F0E9BC00BF10AB01086E
:102F6000014906F0E3BC00BF79AB0108014906F056
:102F7000DDBC00BF45AB0108054B0649D3F8503214
:102F800093F84E20044B53F8222006F0FDBC00BFFE
:102F9000384A00204AAC010838B30108054B0649FD
:102FA000D3F8503293F84E20044B53F8222006F009
:102FB000EBBC00BF384A00208CAA010838B30108D6
:102FC000014906F09DBC00BF67AD0108054B0649ED
:102FD000D3F8503293F84E20044B53F8222006F0D9
:102FE000D3BC00BF384A002082AC010838B30108C6
:102FF0007FB500F1140504460069FEF70BF9094B93
:10300000C0B21E68084B019053F82030009502931F
:103010002A4604F118030549F06810F029FB04B0B2
:1030200070BD00BF1800002090AE0108B9A70108CC
:103030000149FEF75DBB00BFD5A701080149FEF7B6
:1030400057BB00BFEFA901080149FEF751BB00BF04
:10305000ABA901080149FEF74BBB00BFCDA9010890
:103060000149FEF745BB00BF67A801080149FEF70B
:103070003FBB00BF36A801080149FEF739BB00BFBE
:10308000FDA701080149FEF733BB00BFE0A8010816
:103090000149FEF7ADBA00BF00A901080149FEF7DA
:1030A000A7BA00BF69A901080149FEF721BB00BF0B
:1030B00042A901080149FEF71BBB00BFBAA80108DD
:1030C0000149FEF715BB00BF99A801080149FEF7A9
:1030D0000FBB00BF17AA01080149FEF739BB00BFAB
:1030E00037AA01080149FEF733BB00BF6DAA0108EA
:1030F000024B034993F8A222FEF75ABB384A00203C
:1031000051AD010801220149FEF752BBECAC0108A8
:1031100001220149FEF74CBB06AD010870B50589D7
:10312000044600F08BFC854208D22289044B2046DD
:10313000BDE8704003EB42135B691847152070BD72
:1031400068B3010870B50589044600F077FC854234
:1031500008D22289044B2046BDE8704003EB42139D
:103160001B691847152070BD68B3010870B5058943
:10317000044600F063FC854208D22289044B2046B5
:10318000BDE8704003EB4213DB68184770BD00BF19
:1031900068B3010810B50446008900F060FC60B116
:1031A0002289074B03EB4213987A10F0020005D0F6
:1031B0002046BDE8104002F05DBD152010BD00BFE7
:1031C00068B3010870B504460120FEF7EFFD002347
:1031D000124D238104F11806208900F032FC28B931
:1031E00005F01EF8BDE8704004F0EABF21894901EE
:1031F0006B189A7AD2070DD5DB6904312361052259
:103200002944304611F0EDF92046FFF787FF2046AC
:10321000FFF7C0FF238901332381DDE768B301088D
:1032200041F2EF23064A1380A2F84430054A138086
:10323000A2F88434044A1380A2F80432704700BF15
:10324000B8540020284E0020B052002041F2EF2157
:10325000104A13888B421BD1B2F84410994217D1FF
:103260000D4A13888B4213D1B2F8841499420FD1BE
:103270000A4A13888B420BD1B2F804229A4207D132
:10328000074B93F84F30002B14BF5A200020704793
:103290005A207047B8540020284E0020B052002019
:1032A000EC5800200023C37269207047028910B5D2
:1032B000064B044603EB42139B691878FDF750FD5B
:1032C0000223E3722061002010BD00BF68B3010833
:1032D0000289074B10B503EB42139B69044618683B
:1032E000FDF73EFD0223E3722061002010BD00BF08
:1032F00068B301080289054B03EB42139B691B6805
:1033000003610323C3720020704700BF68B3010844
:103310000289064B03EB42139A69DB7A1268037346
:1033200004230261C3720020704700BF68B3010824
:1033300068207047028938B5064B044603EB4213F8
:1033400000699D69FDF766FF02232870E372002083
:1033500038BD00BF68B3010810B504460069FDF729
:1033600059FFC0B2012804D82046BDE81040FFF73D
:10337000E1BF6E2010BD10B504460069FDF74AFF9D
:10338000C0B2022804D82046BDE81040FFF7D2BFE3
:103390006E2010BD10B504460069FDF73BFFC0B2BA
:1033A000032804D82046BDE81040FFF7C3BF6E20B5
:1033B00010BD0000028938B5064B044603EB4213EA
:1033C00000699D69FDF726FF02232860E372002053
:1033D00038BD00BF68B301080189054B026903EBE2
:1033E00041139B691A600323C3720020704700BF1A
:1033F00068B301080289064B016903EB42139A691D
:10340000DB7A116003730423C3720020704700BF8E
:1034100068B3010838B50F4B04469B78BBB11D2536
:1034200064680CB9002038BD94F90B305A1CF9D0EF
:10343000204633B9FFF786FE013D15F0FF05EFD1B9
:10344000F0E7FFF76BFE2046FFF7A4FEF4E76520E8
:1034500038BD00BFB854002010B5014604460648E8
:10346000FCF7B6FE30B121460448FCF7B1FE00304F
:1034700018BF012010BD00BF5BB301085EB3010897
:103480000422F0B50C4685B001460DEB020011F0A8
:10349000A8F82146062201A811F07DF800F0CEFA26
:1034A00000219DF804C09DF805709DF806409DF828
:1034B00007509DF808601B4B8AB2824202D34FF638
:1034C000FF7209E093F804E0E64511D193F805E0B6
:1034D000BEF1000F03D15FB9104605B0F0BDBE4587
:1034E00006D193F806E0BEF1000F04D1002CF3D012
:1034F00001312033E0E7A645FAD193F807E0BEF1A9
:10350000000F02D1002DF3D1E6E7AE45F0D193F8DC
:1035100008E0BEF1000F02D1002EE9D1DCE7B6458C
:10352000E6D1D9E768B3010810B5037E1BB300F1FB
:10353000180421461448FCF74BFEF0B1214613480D
:10354000FCF746FED8B121461148FCF741FEB0B168
:1035500021461048FCF73CFE98B121460E48FCF786
:1035600037FE70B121460D48FCF732FE00280CBF33
:103570000520012010BD184610BD022010BD0320FB
:1035800010BD042010BD00BF51B301085BB301089A
:1035900054B30108B5A7010857B30108BBFE0108E1
:1035A000FF23C37200230022038103730376037594
:1035B0000362036802610BB98372704793F90B20B1
:1035C000072A0ABF9B7A93F90A300133F4E7000017
:1035D0002DE9F0410589044600F030FA85422AD2EF
:1035E00026892046FFF7DCFF144D2681760104F181
:1035F0001808311D2944404610F0C5FF771904F121
:1036000014033946184610F0BEFF227D22B1BA7A63
:10361000520707D50023237535442B692046BDE8A2
:10362000F0411847FCF7DEFD00F118012144404647
:1036300010F0A9FFF0E7BDE8F08100BF68B3010812
:1036400007232DE9F74304460025DFF8409000F1F9
:103650001808C372AEB2304600F0F3F910B903B0E7
:10366000BDE8F083A9B209EB411101A810F08BFF6E
:1036700001A94046FCF7ACFD30B904F12407A6854A
:103680003846FFF7A5FF3C460135E3E768B301087C
:10369000002238B5FF200124134B5A80134B03F549
:1036A0009061A3F1480543F8245C23F81C2C03F82F
:1036B0001A4C03F8182C03F8190C03F80C2C43F8D7
:1036C000203C24338B42ECD10723094C0949C4F830
:1036D00064246260A273E37304F11C0010F053FFD2
:1036E00004F1280038BD00BFB0520020504E002029
:1036F000284E00201D14020870B5FFF7C9FF0025F1
:103700000446FFF78DFD0120FEF750FB2581204682
:1037100002F0ACFA174B20699968FDF70DFD20B94E
:103720002046BDE87040FFF74DBD04F04FFD2581F8
:10373000114D04F11806208900F083F918B9BDE88D
:10374000704004F06DBD218949016B189B7ADB073D
:103750000BD5043105222944304610F042FF2046A3
:1037600002F084FA2046FFF7D9FC23890133238134
:10377000E1E700BF0055002068B30108F8B5064630
:1037800008460F46FCF72EFD0B4D6C882044B0F523
:10379000007F0FD804342C443946204610F0F3FE45
:1037A0003846FCF71FFD6B8834620133184468808B
:1037B0000020F8BD0D20F8BDB052002001461E23A8
:1037C00010B50D4C94F90B20013209D0646814B97E
:1037D0000024204610BD013B13F0FF03F2D1F7E7B0
:1037E0000648FFF74DFE4FF6FF7398422081EFD059
:1037F0002046FFF7EDFEECE7504E00209AFE010850
:1038000070B51E230E46124C94F90B20013209D0DC
:10381000646814B90024204670BD013B13F0FF0317
:10382000F2D1F7E704F1180501460522284610F009
:10383000D8FE31462046FFF7A1FF0028EAD12946ED
:103840000448FFF71DFE05232081E372E3E700BF74
:10385000504E00209AFE0108064B01469B78012B32
:1038600003D1054B1B79012B02D10448FFF7C8BFD8
:1038700000207047B8540020E4580020B5A7010884
:10388000044B9B78012B02D1114602F033B906F0AC
:1038900015B800BFB8540020024B03610223C37265
:1038A0000020704700007E4310B504461048FEF724
:1038B00008F850B92069FCF701FE0BA3D3E90023F7
:1038C000FCF750FEFDF746F920612289094B21697A
:1038D00003EB42139A69DB7A116023730423E372CA
:1038E000002010BDAFF300806666666666663940EC
:1038F0008C4C002068B301082DE9F84306460024EB
:10390000114DA5F14008A5F11807335D06EB040938
:10391000BBB1FFF7BDFE05224946284610F061FE07
:1039200029460A48FFF7ACFDA8F830003846FFF7F3
:103930004FFE0634022203210020FFF7A1FFAE2C28
:10394000E3D10420BDE8F883684E00209AFE010808
:1039500070B590B001AA1546084B03F1380614461D
:1039600018685968083303C4B3422246F7D118686F
:1039700020602846FFF7C0FF10B070BD50A60108B8
:1039800070B58CB001AA1546084B03F12806144601
:1039900018685968083303C4B3422246F7D11B881C
:1039A00028462380FFF7A8FF0CB070BD8CA6010845
:1039B00070B588B06A466D46094B03F11806144687
:1039C00018685968083303C4B3422246F7D118680F
:1039D0009B882060A3802846FFF78EFF08B070BD4B
:1039E000B6A6010838B5044600F118051149284665
:1039F00010F0C9FD2046FFF723FE0222032100201C
:103A0000FFF73EFF2046FFF7D3FF2046FFF7B8FF42
:103A10000949284610F0B7FD2046FFF711FE0020A7
:103A200002220321FFF72CFF2046BDE83840FFF7B4
:103A30008FBF00BF5EB3010862B301084FF4C170CD
:103A40007047B0F59C7F8CBF0020012070476FF459
:103A5000AA73184428288CBF002001207047B0F5B5
:103A6000AB7F2CBF00200120704700000000000049
:103A700070B505460069FCF721FD02460B46064677
:103A80000C46FDF709F838BB24F000444FF0FF3234
:103A9000154B30462146FCF7FFFF38B94FF0FF3297
:103AA000114B30462146FCF7D9FFA8B12A890F4BAC
:103AB00003EB42139B7A1B070ED50D48FDF701FF60
:103AC00050B92869FCF7FAFC05A3D3E90023FCF7F9
:103AD00049FDFDF73FF8286170BD00BFAFF30080DE
:103AE0000A8542A15028A43FFFFFEF7F68B3010879
:103AF0008C4C002041F2EF22024B1A80A3F8A8233D
:103B0000704700BF0055002010B5094C4FF46B7290
:103B1000002120460FF09CFEFFF7ECFF054BA36051
:103B2000054BE3604FF07E5323610323A37010BD68
:103B300000550020E11ADC43EC51783F41F2EF21BF
:103B4000064A13888B4206D1B2F8A803984214BFE4
:103B50006020002070476020704700BF00550020A3
:103B600080B5794E794FFDF781FE0628FBD0FDF731
:103B70007DFE022802D005F085FC80B9FEF7EEFD3F
:103B80000228F0D003F02CFD0228ECD0FFF75EFBFA
:103B9000307050B1FEF7F0F8022824D1E3E7CC20D2
:103BA000FEF7EAF80228DED0E8E7FFF7C7FF30703B
:103BB0000028EFD1FEF7AEF830700028EAD104F00B
:103BC00067F830700028E5D104F0DEFF307000287F
:103BD000E0D100F067FE30700028DBD106F051F82C
:103BE00030700028D6D104F03DFC0228BBD004F090
:103BF0000FFD0228B7D004F067FD0228B3D002F011
:103C0000A7FC0228AFD000F007FB0228ABD000F0E1
:103C100069FC0228A7D000F015FE0228A3D0FDF70A
:103C200023FF02289FD0FDF727FE012813D104F0BF
:103C30008BF81F2897D90020FDF738FEB87810B907
:103C4000434905F005FDFF22002142480FF000FE28
:103C50000024414D0DE004F077F8032883D9F2E702
:103C60000A2806D00D281FBF2B19013483F8440001
:103C7000E4B206F0EDFAFF28F2D1002C3FF473AF66
:103C8000354D05F1440420462C64FCF7ABFA0130B5
:103C90002146A883632205F2433010F0A2FC95F878
:103CA00044400FF09BFD2044437803F00303022BB4
:103CB00014BF2046A4F1200025282FD01CDC182892
:103CC00026D00FDC68B3BB78012B38D12C6CF722DF
:103CD0002146224810F085FC204A2149204610F058
:103CE00011FC28E0212816D02428ECD10023286CD0
:103CF000BB7005F0EBFB18E04828F7D001DC3F284B
:103D0000F3E77B2815D07E28DDD1FEF735FC2AE7C6
:103D100001F05AFB27E7FEF71FFC24E7FEF724FC1F
:103D200021E7BB78012B3FF41EAF0E4905F090FC54
:103D300019E70123BB70286C01F0A6FB13E7286C80
:103D400000F0FEFDF1E700BF3C590020B854002010
:103D50009AFE0108445500200055002043560020DB
:103D6000A8E301084358002070B50F4C0646A37B1A
:103D7000C5B283B128460021FEF7C6F801230B48DF
:103D8000304480F823322846A16BFEF73FFF084BF2
:103D90000220236170BD29460648FDF725FE014635
:103DA0002846FEF7B1F8EEE75C040020384A002010
:103DB000A53F00089075002070B58CB004460E46F3
:103DC00015460021182268460FF042FD18220021F6
:103DD0000DEB02000FF03CFD0CAB03EB84004FF049
:103DE0007E5340F8183C0A4B40F8306CC3F89452AC
:103DF00003F0F2FFFEF7C0FB06A96846FEF774FC6D
:103E0000044B0028187008BF02200CB070BD00BF22
:103E1000384A00203C59002010B50D4C0D4B94F948
:103E200003201A44D278012A07D1E269616AFFF7B8
:103E3000C3FF094B0220236110BD94F904201344F1
:103E4000DB78012BF5D1616AE26901F10041EEE70F
:103E50005C040020144A00205D3E000838B5382379
:103E60000546094A094C03FB0023C0B2D3F8E4100D
:103E7000FEF7CCFEE269A1692846FFF79DFF044BDF
:103E80000220236138BD00BF384A00205C040020B6
:103E9000253F000810B5044CE269A16AFFF78CFFCA
:103EA000024B0220236110BD5C040020693D000824
:103EB00038B5114C03F090FF94F83100FDF7C4FFC2
:103EC00094F83000FDF772FF94F83200FDF776FFAA
:103ED0000A4D94F83300FEF7FDF9636B05F5157094
:103EE0000421C5F89432FDF7FCFCFEF77DFC0020B0
:103EF00085F81E0238BD00BF5C040020384A00204F
:103F000010B50446064BC0B2996BFEF77FFE204603
:103F1000FFF7CEFF002004F08DFAF02010BD00BFA7
:103F20005C04002010B5094C094B94F9032013449C
:103F3000DB78012B03D0074B2361022010BD226ADE
:103F4000616AFFF739FF044BF6E700BF5C0400200D
:103F5000144A0020013F0008953E000810B50446B1
:103F6000A0B0FFF795FBA31C0DD10C48FFF774FC24
:103F70000222F0201146FFF783FC2046FFF798FF4E
:103F8000F02020B010BD2046FEF772FC0449024626
:103F9000684610F0B7FA6846E8E700BFB5E30108E5
:103FA000E1E301082DE9F047441C704C23D170492E
:103FB000D4F89C03FDF7E8F80746002840F0B180EC
:103FC0006B49D4F89403FDF7DFF8002840F0AA808D
:103FD0006749D4F89803FDF7D7F8002840F0C4806B
:103FE0006349D4F8A003FDF7CFF8002840F0BA8069
:103FF0006FF00100B0E002281ED15D49D4F89403AF
:10400000FDF7C2F8002840F0AB805949D4F8980376
:10401000FDF7BAF8002840F0A7805549D4F8A0036E
:10402000FDF7B2F8002840F09D800123514A84F842
:104030002132514B1A6156E00028E6D00128ECD01D
:10404000F3E7D6F8FC4000212046FDF77FF8002872
:1040500040F08180D6F8DC10D6F8D800FCF7CEFD11
:10406000214620F00040FCF7CBFD4149804620F07E
:104070000040FDF76BF800286DD15FFA87F94FEA31
:104080004905284605F0F8F93B4C05F1010A607036
:10409000504605F0F1F96278A0705040C1075AD53A
:1040A000D6F8F430277023F00043E361D6F8F830F7
:1040B00023F000432362D30718D5D6F8FC3008F16B
:1040C00000486362D6F80031E57084F804A0C4F8B3
:1040D0001880E078A36205F0CFF900F0FD00012818
:1040E00013D0264B23610220BDE8F087D6F8FC30C0
:1040F00084F803A003F100436362D6F80031257110
:10410000C4F8188003F10043E3E7207905F0B4F91F
:1041100008B9FF2323714846FEF76EFD184BA063D4
:10412000E0E702273826002206FB0746D6F8F4000F
:10413000E31983F8232220F000400D49FDF706F82B
:1041400048B9D6F8F8000A4920F00040FCF7FEFF15
:1041500000283FF476AF3846BDE8F047FFF7FEBED3
:104160000027DFE70327DDE70127DBE7384A0020E8
:10417000ACC52737B13E00085C040020A53F00080D
:10418000193E000838B51C4D1C4CD5F85002FDF7FF
:1041900098FB84F83000D5F85002FDF78FFB84F8C7
:1041A0003100D5F85002FDF792FB84F83200D5F8C3
:1041B0005002FDF78FFB84F83300D5F85002FDF76D
:1041C0008EFB60630120FDF7F1FD0120FDF7F6FD98
:1041D0000020FDF739FE0120FEF77CF80123A373D0
:1041E000FF232370064B00202361032385F821025F
:1041F00085F81E3238BD00BF384A00205C0400201C
:10420000A53F000808B5FFF7BDFF0020014B9873DC
:1042100008BD00BF5C04002010B50A4B93F81E32A5
:10422000032B0AD1FDF759FB012808D0BDE8104047
:10423000054B1A6993F900001047032010BD0220B6
:1042400010BD00BF384A00205C040020024A034B26
:1042500002205A61704700BF6142000898040020A4
:104260002DE9F04F82464FF07E5591B01822002183
:1042700004A80FF0EDFA002118220AA80FF0E8FABE
:1042800010AB03EB8A0343F8185C4F4B9E685C68E5
:1042900030462146D3F80C80FCF762FF00B94B4D45
:1042A00031462046FCF7AAFCFCF78EFF0028B8BF79
:1042B0004042FCF759FD464B8146C3F8948203F017
:1042C0008BFDFEF759F91A230026424FDFF814B18F
:1042D00001934FF080414846FCF756FF3A4C4FEAB5
:1042E0008A0350B1494638460293FCF72FFF029BE0
:1042F00018B1019A013A019215D12169344A04A8F2
:10430000C2F8941210AA134462680AA943F8302C28
:10431000FEF7EAF9304B187010B902202F4B636199
:1043200011B0BDE8F08F10AA134429463846029315
:10433000FCF76EFD0146A068FCF762FC029B0AA92F
:1043400043F8300C224B04A8C3F89482FEF7CCF952
:10435000214B18700028E3D14FF07E513046FCF716
:104360004FFC59460646FCF707FEFCF7A7F8024645
:104370000B4600201A4913F023FED4F80C80CDE937
:10438000020141462069FCF739FC0022144B044627
:10439000DDE90201FCF710FAFCF7DCFB01462046E0
:1043A000FCF736FD4146FCF72BFC31468046304693
:1043B000FCF726FC5946FCF7DFFD01463846FCF7C2
:1043C0001FFC074685E700BF98040020000080BF5F
:1043D000384A00200AD7233C3C590020E943000812
:1043E000000024400000C84138B50546124C03F0D7
:1043F000F3FC216AE8B2FEF709FC607FFDF724FDBB
:10440000207FFDF7D3FCA07FFDF7D8FCE07FFDF710
:1044100061FFA3690024094D042105F51570C5F855
:104420009432FDF75EFAFEF7DFF9054885F81E4283
:1044300010F060F8204638BD98040020384A00206B
:104440000FE4010870B5224D0646D5F85002FDF77D
:1044500038FA204C2077D5F85002FDF72FFA607714
:10446000D5F85002FDF733FAA077D5F85002FDF7E2
:1044700031FAE077D5F85002FDF731FAA061304605
:10448000FEF7BAFB20620120FDF790FC0020FDF74B
:1044900095FC0020FDF7D8FC0120FDF71BFF0E4B1B
:1044A0003146E360382303FB0653D3F8D4300B487E
:1044B0002361FDF78BFAA060FEF760FC084B2670C5
:1044C0006361042385F81E326060002070BD00BF68
:1044D000384A0020980400200000204190750020F8
:1044E0004D42000810B50A4B93F81E32042B0AD136
:1044F000FDF7F3F9012808D0BDE81040054B5A69D3
:1045000093F900001047032010BD022010BD00BF2A
:10451000384A00209804002010B50A4C0A4B227932
:104520001344DB781BB1094B0220236010BD04F15A
:10453000540104F13C00FEF7D7F8054B1870002831
:10454000F1D010BDBC040020144A002055450008DD
:104550003C5900202DE9F0410026134D13492879DC
:10456000134C0144C97804F50A784B1E594259414D
:1045700084F82912F7B2384602F0F0FC01463846BA
:10458000FDF7C2FC3946D4F85002FDF71FFA013698
:10459000062E48F8040FEDD1064800F075FF064BD3
:1045A00002202B60BDE8F081BC040020144A0020EA
:1045B000384A002076E401082146000870B5144C02
:1045C00003F00AFC6279134B21791A70A2790B442B
:1045D000DA72002504F04EFF04F10806E8B256F83E
:1045E000041F0135FEF712FB062DF7D1207AFDF7E7
:1045F0002BFCE079FDF7E2FB04210748FDF771F998
:10460000FEF7F2F80022054B83F81E2270BD00BFB2
:10461000BC040020144A00208C4C0020384A0020A2
:1046200008B5FFF7CBFF002008BD000010B5044619
:10463000A0B0FFF72DF8A31C0CD10B48FFF70CF925
:104640000222FA201146FFF71BF9FFF7B7FFFA2005
:1046500020B010BD2046FEF70BF90449024668461B
:104660000FF050FF6846E9E719E4010843E4010848
:104670002DE9F041022300254FF038083A4C3B4E1B
:1046800084F8295284F81E32EFB23846FEF7B4FAA5
:1046900008FB054346F8040FD3F8E4103846FEF74C
:1046A000B5FA3946D4F85002FDF790F90135062DD8
:1046B000B061E9D12E49A1F1180005F07FF9FBF7AF
:1046C000FDFE27A3D3E90023FCF7BEF918B16FF074
:1046D0000100FFF7ABFF0325264E274F306B39460D
:1046E00020F00040FCF750FD60B1B1693068FCF784
:1046F00085FA394620F00040FCF746FD10B168B25B
:10470000FFF794FF0135EDB2062D06F10406E5D161
:1047100004231A4D00262B71194BDA7BAA71012252
:10472000DA731A781E706A7104F0A4FED4F850028D
:10473000FDF7C4F82872D4F85002FDF7C8F8E87104
:104740003046FDF73BFB3046FDF77EFB304604F07C
:10475000B1F80C4B02202B60BDE8F081AFF3008074
:10476000A8C64B378941D03F384A0020C4040020F6
:10477000F8040020EC040020ACC52737BC0400205E
:10478000144A002019450008F8B5274B054693F850
:10479000A0220C461E4642B1D3F89402234920F0D1
:1047A0000040FCF7D3FC002839D120681F4920F0D5
:1047B0000040FCF7CBFC68B160681C4920F0004069
:1047C000FCF7C4FC30B1A068184920F00040FCF7A9
:1047D000BDFC30BB2B46164D03F118072A4618685E
:1047E0005968083303C2BB421546F7D12346114C22
:1047F00003F11805224618685968083303C2AB4212
:104800001446F7D1182200210B480FF021F802239B
:104810000A4A86F829320A4B00201A60F8BD8E2019
:10482000F8BD8620F8BD00BF384A0020ACC5273748
:10483000F804002010050020644C00207146000898
:10484000BC04002010B50B4B93F81E22022A03D0A3
:1048500093F82932022B08D1FDF73FF8012806D042
:10486000BDE81040044B1B681847032010BD022010
:1048700010BD00BF384A0020BC04002041F2EF22E6
:10488000014B9A841A807047AC58002008B5282242
:10489000002103480EF0DCFFBDE80840FFF7EEBF43
:1048A000AC58002041F2EF21054A938C8B4205D190
:1048B0001088984214BF5C20002070475C2070472D
:1048C000AC58002038B505460846FBF7F7FD13F055
:1048D000C3FAFCF7F7F8024C04EBC504A06038BD3E
:1048E000AC58002008B5034B03EBC0008068FCF710
:1048F0003BFA08BDAC580020F8B50446FBF7DEFDD6
:1049000013F02AFB06460F4620460B49FCF780FAB7
:10491000FBF7D4FD002204460D46084B30463946CD
:10492000FBF720FE02460B4620462946FBF766FCB5
:10493000FCF7F0F8C0B2F8BD0000204100002440B0
:104940002DE9F04F4FF00009D04C8BB094F81D3298
:104950000546022B8DF8239000F014840DF12307F7
:10496000804683463E460378CDF8189005939BF821
:104970000030002B40F0A280A94699F80030002BAF
:1049800040F0D0803B78002B00F016810EF026FF1F
:1049900097F80090B84609F1010A10F80A3001377B
:1049A0001B07F3D40EF01AFF10F80A3003F00303CC
:1049B000012B08BF09F12009B9F16D0F00F0D68075
:1049C0003046002298F80030002B40F0EE80059B26
:1049D0002F2B00F0D98303780BB1FDF7B7FD102220
:1049E0000021AB480EF034FF60220021A9480EF0F0
:1049F0002FFF60220021A8480EF02AFFA748FCF7ED
:104A00005BFF4FF000094FF07E58A14E84F82D0354
:104A10002B78002B00F0BA830EF0E0FE95F800A092
:104A20005044437803F00303012B40F0A7846B78D4
:104A30006F1C302B40F00283AB78582B40F0FE8285
:104A40004F460235AAF14103192B00F2E88001A27A
:104A500052F823F0E54F0008EF4F0008F94F000827
:104A60001F4C00081F4C0008A94F0008BD4B000850
:104A70001F4C0008035000080D5000081750000894
:104A8000114A0008754E00082B5000081F4C000802
:104A9000B34F00081F4C000821500008BD4F00080C
:104AA0008F4F00081F4C00081F4C00081F4C0008C7
:104AB000C74F0008D14F0008DB4F000818F8013B32
:104AC00013B98BF8003052E7282B01D03B2B05D1CE
:104AD0009DF8183047468BF8003048E70EF07EFE10
:104AE00018F8019C09F1010A10F80A10480706D1CC
:104AF00049466B480FF039FD00283FF438AF0BF101
:104B0000010107910EF06AFE10F80A00079900F003
:104B10000300022814BF4B46A9F120038BF8003094
:104B20008B4624E72E2B3FF42DAFC8460EF056FEE1
:104B300018F8013B18444378590715D499F8013007
:104B4000302B11D10EF04AFE99F802301844437808
:104B50005A0709D598F80030002B3FF40EAF98F8AB
:104B6000013008F8013BF5E7C14606E798F8017007
:104B70000EF034FE3844437803F00303012B08BFE2
:104B80002037732F7FF41CAF98F802700EF026FECA
:104B90003844437803F00303012B08BF2037672F05
:104BA0007FF40EAF08F103000BE7292B08BF88F84C
:104BB000002008F1010805E7304608E73846FCF711
:104BC00029FBC0B231283FF423AF40D8122800F0AF
:104BD000A58018D8032800F08E8007D8012800F09F
:104BE00082804FF0010378D9022277E00A2800F092
:104BF0008680112800F08D80042810D10D2384F8C0
:104C00002C330123B5E01C2800F0A18009D814281A
:104C100000F08F80C0F08B80152800F094808325F1
:104C20008CE2262800F0AE8028283FF4F1AE1E2842
:104C3000F5D13846FFF760FE002800F0A18001287A
:104C4000EDD1062384F88C0384F82C335DE03D28F5
:104C500000F0B48026D8382800F0AA800CD8362876
:104C600000F0988000F29F803528D8D1012384F885
:104C7000603384F8C033CBE63A2800F09D80C0F062
:104C800099803B28CBD106238EE000BF384A002014
:104C9000D4580020C44D0020644D00208C4C0020CE
:104CA00083E401085B2800F0B9800BD8502800F09D
:104CB0009A805A2800F09B804028B0D1022384F8C3
:104CC00062338CE05D2800F0CB80C0F0B7805E28B6
:104CD000A5D1012384F85833C6E0002284F82D239F
:104CE00084F88D3303E084F82D0384F88D03737802
:104CF000013373708CE684F82D030123F0E7082359
:104D000084F82C33012384F88C33337801333370E7
:104D10007EE6002384F85D33012302E0012384F85A
:104D20005D3384F8BD33B3780133B37070E602238A
:104D3000F0E7002384F85E33012384F8BE337379EF
:104D40000133737164E6012384F85E33F5E7384676
:104D5000FFF7D2FD04283FF662AFDFE800F003055D
:104D6000070D0F000523CBE70423C9E7012384F8CF
:104D70002C3384F88C334BE6022340E703233EE7D1
:104D80000723BDE73846FFF7B7FD02287FF447AF9A
:104D90000E2334E7012384F85F3384F8BF33737A3A
:104DA0000133737234E6022384F85F330123F4E79E
:104DB0000323F9E70423F7E70523F5E73846FFF770
:104DC0009BFD50B101287FF42AAF84F8620384F878
:104DD000C203B37A0133B3721AE684F86203012383
:104DE00084F8C233F5E7042384F82D3385E7384689
:104DF000FFF782FD60B101287FF411AF002384F832
:104E00006433012384F8C433F3780133F370FFE58E
:104E1000012384F8630384F8C333F5E73846FFF7CA
:104E20006BFD38B101287FF4FAAE84F8640384F88E
:104E3000C403E9E7012384F86333ECE73846FFF75E
:104E40005BFD03283FF6EBAEDFE800F00204060846
:104E5000092355E70A23D2E60B23D0E60C23CEE63E
:104E6000002384F85833012384F8B83333790133AD
:104E70003371CDE53846FCF7CDF980B2092864D00E
:104E800018D8042845D00CD802281BD038D80023C5
:104E900084F82E33012384F88E33F37A0133F372CE
:104EA000B6E506283CD039D307283FD0082846D09D
:104EB000842543E133285BD012D830284AD005D866
:104EC0001E28F5D1012384F82E33E4E731284AD097
:104ED0003228EDD1012384F8593384F8B9333EE008
:104EE00073284BD005D83C28D1D07228E0D10F23AD
:104EF00085E6C92844D0B0F5C87FD9D112237EE613
:104F0000012384F86A3384F8CA33737B01337373E3
:104F10007EE5022384F86A330123F4E70023F9E7EE
:104F2000012384F8673384F8C73371E5012384F8DB
:104F3000683384F8C833B37B0133B37368E5012366
:104F400084F8693384F8C933F5E7002384F86933BA
:104F50000123F7E7012384F85B3384F8BB33F37B49
:104F60000133F37354E5002384F85B330123F4E742
:104F7000012384F8743384F8D433F0E710233EE639
:104F80003846FFF7B9FC032892D1112337E638469B
:104F9000FBF794FA12F0E0FFFBF7BCFD012384F865
:104FA000660384F8C63333E5C4F84C73C4F8AC83A5
:104FB0002EE5C4F87873C4F8D88329E5C4F86C7377
:104FC000C4F8CC8324E5C4F83473C4F894831FE593
:104FD000C4F83873C4F898831AE5C4F83C73C4F86D
:104FE0009C8315E5C4F84073C4F8A08310E5C4F8A9
:104FF0004473C4F8A4830BE5C4F84873C4F8A883C9
:1050000006E5C4F88073C4F8E08301E5C4F884734E
:10501000C4F8E483FCE4C4F88873C4F8E883F7E4D4
:10502000C4F87C73C4F8DC83F2E43846FCF7F2F889
:105030000123C4F83003C4F89033E9E409A93846E1
:1050400010F01AF9099DAF4240F0A281662575E083
:10505000D4F87803FDF74EF93070002800F036815F
:1050600005466BE0FDF7F0F805465AE0C449A1F1AA
:105070006000FDF7E9FAF7E7FDF7F6F8F4E7C04955
:10508000A1F16000FDF708FBEEE7FFF77BF8EBE727
:10509000BB49A1F16000FCF74FFFE5E7FFF7B2F86D
:1050A000E2E7B749A1F16000FFF76EFBDCE7D4F857
:1050B0007803FCF7AFF8B24AC0B2A2F16001FCF786
:1050C00087FED1E7AE49A1F16000FCF77DFFCBE799
:1050D000FCF7E0FFC8E7FDF707F8C5E7FDF722F8A2
:1050E000C2E7FDF73DF8BFE7FDF776F8BCE7A44956
:1050F000A1F16000FDF7A4FDB6E7FDF795F8B3E771
:1051000094F860139F48FCF729FC94F82D33042B86
:1051100007D8DFE803F0171D23230300042384F8D6
:10512000583200219748FCF719FC94F88E33012B74
:1051300004D194F82E3313BBFDF784FB28460BB043
:10514000BDE8F08F8E49A1F16000FDF759FA8BE7B9
:105150008B49A1F16000FDF7C7FA85E70293D4F807
:105160007C3387490193D4F88833D4F880230093A3
:10517000A1F16000D4F8843300F092FD74E7FDF7EC
:1051800063FBDBE7CB25D9E70325D7E77E4ED4F8D1
:1051900030033370FCF7ACFB94F8B85325B194F8A6
:1051A0005803FDF797F80546D4F8AC03FCF732F83E
:1051B00010F0FF0F04D0D4F84C03FDF765F8054656
:1051C000D4F8B003FCF726F810F0FF0F07D0D4F89E
:1051D0005003FCF71FF8C0B2FDF758F90546D4F8A4
:1051E000B403FCF717F810F0FF0F07D0D4F85403FE
:1051F000FCF710F8C0B2FDF773F90546D4F8CC03FC
:10520000FCF708F810F0FF0F04D0D4F86C0303F09B
:1052100067FB0546D4F8D003FBF7FCFF10F0FF0F47
:1052200007D0D4F87003FBF7F5FFC0B2FDF782F9A1
:10523000054694F8C63323B194F86603FDF764F885
:10524000054694F8C73323B194F86703FDF772F865
:10525000054694F8CA3323B194F86A0303F02AFB95
:10526000054694F8C83323B194F86803FDF77CF839
:10527000054694F8C93323B194F86903FDF78AF819
:10528000054694F8B93323B194F85903FDF7E0F8D3
:10529000054694F8BA3323B194F85A03FDF702F99E
:1052A000054694F8D43323B194F87403FDF724F938
:1052B000054694F8BB3323B194F85B03FDF7BCF8C3
:1052C000054694F82C330D2B3FF4C2AE94F8BD3351
:1052D00023B194F85D03FCF761FD054694F8BE33F5
:1052E00023B194F85E03FCF761FD054694F8BF33E3
:1052F00023B194F85F03FCF7A7FD054694F8C23389
:1053000023B194F86203FCF7EDFF054694F8C3332C
:1053100023B194F86303FCF751FD05461B4C94F848
:105320002C33122B3FF6FDAE01A252F823F000BF42
:10533000015100088B500008915000089D50000852
:10534000655000086D500008795000087F50000833
:10535000AF500008C5500008D1500008D7500008D1
:10536000DD50000823510008A3500008E350000856
:10537000E9500008EF500008FB5000086525DDE605
:10538000CC4D00208C4C00203C590020384A002095
:10539000FBF7E0FB0746FFF755BB00BF10B505491B
:1053A0000446FEF7EBF9044B187008B90523E372C5
:1053B00010BD00BF435800203C590020006AFFF791
:1053C000BFBA7047704700000122024B83F82C20BF
:1053D000704700BF0055002010B5114A8CB05168CD
:1053E0000446106803AB03C3128900211A800DF133
:1053F000160017220EF02CFA002303A801A9C25CA4
:105400005A540133092BFAD100238DF80D300523AE
:105410002046E372FEF7B2F9024B18700CB010BDD3
:10542000D4A601083C59002038B54FF0824105460A
:105430000069FBF7A9FE044630B92846FDF7DAFFFC
:1054400004F018F8204638BD6D2038BD014904F03D
:1054500083BA00BF86E40108014904F07DBA00BFA9
:10546000A2E40108014904F077BA00BFC0E40108D2
:10547000014904F071BA00BFDFE40108014904F0FA
:1054800031BA00BFFDE401082DE9F04F8BB00446AE
:10549000FEF7FEF80026054620460496FAF7A2FE1F
:1054A000B0F5007F42D82746B04604F1FF3919F81D
:1054B000016FCEB9B0463E70B54E86F80080B8F1A7
:1054C000000F06D11E27013F17F0FF0731D14FF023
:1054D0007008022200214046FEF7D2F9012002F0B6
:1054E000A9FF0BB0BDE8F08FB8F1000F16D1282E40
:1054F00011D0202EDBD97F2ED9D00EF06FF9304499
:10550000437807F1010A03F00303012B08BF20369B
:105510003E705746CBE74FF00108EEE7B6F1290899
:105520003E7018BF4FF001080137C0E74FF06B081D
:10553000C2E7984B04F109090693974B1A889B78A8
:10554000ADF80C208DF80E30944B0793944B1868EF
:105550009B8808902846ADF82430FEF721F8A04635
:1055600006A898F8001001340EF0FFFF40BBA146DA
:1055700008F1220A4C4603A8217809F101090EF02E
:10558000F4FF10B30022A24605F118090AF8012B16
:105590004146062248460FF024F804F10A080EF0AE
:1055A0001DF954461AF801BB584441784B070FD1F6
:1055B000594608A80EF0D9FF50B9C245EFD101E015
:1055C0004C45CCD14FF06F0883E7CA45D2D1F9E7FB
:1055D000BBF16E0F05D0BBF1220F06D16378222BF1
:1055E00003D10023EB7200239FE00EF0F7F821783F
:1055F000084490F8018018F0040801D12D2953D1F6
:1056000005A920460FF038FEFBF7A4FA059B286198
:10561000A34200F0B9800423EB72204607A90EF0E4
:10562000F5FF04460028CDD003787D2B08BF013458
:1056300023782C2B3DD04FF0000801349DF810202A
:1056400005F1140332B11846032204A901930EF0A8
:10565000C8FF019B49461846FDF712FF4FF6FF723F
:105660009042288100F08A80FEF7F1F940B1484667
:10567000FDF7F2FE20B10322494604A80EF0B1FF67
:105680006D68002D3FF423AFB8F1000F7FF41BAF1E
:10569000444C94F93330002B5DD104F12800FDF720
:1056A00051FD8046307014E77B2905D10723013472
:1056B000EB724FF00208C1E7222930D1052204F134
:1056C000010BEA7258460EF050FF059000283FF497
:1056D00079AF80F800805846FAF784FD022811D986
:1056E0006278302A0ED1A278782A0BD14246414600
:1056F00058460FF051FE03232861EB72059C0134DC
:1057000005948AE759462846FEF738F880463070F7
:105710000028F3D05C46B8F1020F8FD9D9E674297E
:1057200005D10123EB724FF07E532B6175E766299B
:1057300001D1012356E75B297FF444AF06232146BC
:10574000EB722846FEF71AF8804630700028E2D146
:105750004FF06708BDE6144B93F81D32022B10D0B2
:1057600004F12800FDF7DAFC8046307000287FF451
:10577000B0AE04F12800FDF70DFDAAE64FF0640875
:10578000A7E64FF0CB08A4E64FF06608A1E600BFFD
:105790003C5900207B2C2200C5E501087D2C22000D
:1057A000C8E50108284E0020384A00202DE9F74FAF
:1057B000A2F10803CB18009390F90A300546019333
:1057C0007B230B700023884691461F464FF0000B49
:1057D0004C1C95F90B20013278D01BB12C230134DD
:1057E00004F8013C504B05F118029B787BBB4F49F4
:1057F00020460EF087FE95F90B300444042B28D187
:105800002869FAF75BFE02460B4682460E46FBF716
:1058100043F988B926F000464FF0FF32444B50461A
:105820003146FBF739F948B94FF0FF32404B50464B
:105830003146FBF713F908B9C5F810B02846FEF752
:1058400017F92A7B2969204604F07CF914E03949CC
:10585000CEE72BB9384920460EF095FE04342BE0F4
:10586000022B0BD12869FAF729FE02460B46204687
:1058700032490EF047FEC0B204441DE0032B05D1AF
:105880002A692F4920460EF03DFEF4E7052B02D190
:105890002A6A2C49F6E7062B02D12A6A2A49F1E73F
:1058A000012B09D129492869FBF750FCB0B12046EA
:1058B00027490EF068FE053495F90B30072B09BF18
:1058C0007B2301232370002308BF0134009A9442F4
:1058D00006D34FF6FF7003B0BDE8F08F1D49BAE75D
:1058E0006D68E2195DB17D2095F90A70111B49B20E
:1058F0008F42BFF66EAF04F8010B0123F4E77D2160
:10590000131B01985BB298420BDB2046124902340C
:10591000C1440EF038FE4C45DBD8A4EB0804A0B21D
:10592000D9E704F8011BEBE7E4580020DEE50108A5
:10593000FFFFEF7FE2E50108E8E50108A4FE0108AA
:10594000EDE50108F5E50108FAE50108ACC52737E2
:10595000FFE5010805E60108B2E3010810B5074CB0
:105960004FF400722146FFF721FF054B2046BDE8AA
:1059700010401B68D9680DF001BF00BF43560020DE
:10598000180000202DE9F0414D4E8AB033780746CB
:10599000002B00F08C806F2857D1FDF779FE494924
:1059A000494CA1F2FF2004F0B2F801464748FDF748
:1059B00027FF94F90B30013370D1454D0122AB8B99
:1059C000444900933B46002705A80EF09BFD05A91E
:1059D0002046AF83FDF7D2FE73783F49A3720623BA
:1059E00004F11800E3720EF0CEFD67604FF4007210
:1059F00005F243113948FFF7D9FEB0F5FC7F2E467A
:105A000055D804B22146731893F84331302B51D145
:105A1000334D0131294403A80EF0B5FD331993F835
:105A200043312C2B49D1A1B22D4804F009F901349E
:105A300003AB02462B4928190EF064FD2A4B284877
:105A40001B68D9680DF09AFE31E0284B1E4C93F884
:105A50001D32002BADD0FF25DFF894802046FDF7E6
:105A600063FD0028A5D0022803D1F37993B9E5722C
:105A700010E0042801D13379F8E705280AD1B37979
:105A8000002BF4D02069414620F00040FBF75EFB7C
:105A90000028ECD16468002CE0D18AE76468002C0F
:105AA00087D14FF400720E490C48FFF77FFE0AB011
:105AB000BDE8F081013909B2A5E7013C24B2ADE7A8
:105AC000E458002043580020504E002057B30108EE
:105AD00000550020CEE50108F2FE01082C4E002002
